{
  "_format": "hh-sol-artifact-1",
  "contractName": "DweetNft",
  "sourceName": "contracts/DweetNft.sol",
  "abi": [
    {
      "inputs": [],
      "stateMutability": "nonpayable",
      "type": "constructor"
    },
    {
      "anonymous": false,
      "inputs": [
        {
          "indexed": true,
          "internalType": "address",
          "name": "owner",
          "type": "address"
        },
        {
          "indexed": true,
          "internalType": "address",
          "name": "approved",
          "type": "address"
        },
        {
          "indexed": true,
          "internalType": "uint256",
          "name": "tokenId",
          "type": "uint256"
        }
      ],
      "name": "Approval",
      "type": "event"
    },
    {
      "anonymous": false,
      "inputs": [
        {
          "indexed": true,
          "internalType": "address",
          "name": "owner",
          "type": "address"
        },
        {
          "indexed": true,
          "internalType": "address",
          "name": "operator",
          "type": "address"
        },
        {
          "indexed": false,
          "internalType": "bool",
          "name": "approved",
          "type": "bool"
        }
      ],
      "name": "ApprovalForAll",
      "type": "event"
    },
    {
      "anonymous": false,
      "inputs": [
        {
          "indexed": true,
          "internalType": "address",
          "name": "from",
          "type": "address"
        },
        {
          "indexed": true,
          "internalType": "address",
          "name": "to",
          "type": "address"
        },
        {
          "indexed": true,
          "internalType": "uint256",
          "name": "tokenId",
          "type": "uint256"
        }
      ],
      "name": "Transfer",
      "type": "event"
    },
    {
      "inputs": [
        {
          "internalType": "address",
          "name": "to",
          "type": "address"
        },
        {
          "internalType": "uint256",
          "name": "tokenId",
          "type": "uint256"
        }
      ],
      "name": "approve",
      "outputs": [],
      "stateMutability": "nonpayable",
      "type": "function"
    },
    {
      "inputs": [
        {
          "internalType": "address",
          "name": "owner",
          "type": "address"
        }
      ],
      "name": "balanceOf",
      "outputs": [
        {
          "internalType": "uint256",
          "name": "",
          "type": "uint256"
        }
      ],
      "stateMutability": "view",
      "type": "function"
    },
    {
      "inputs": [
        {
          "internalType": "uint256",
          "name": "tokenId",
          "type": "uint256"
        }
      ],
      "name": "getApproved",
      "outputs": [
        {
          "internalType": "address",
          "name": "",
          "type": "address"
        }
      ],
      "stateMutability": "view",
      "type": "function"
    },
    {
      "inputs": [],
      "name": "getUserNfts",
      "outputs": [
        {
          "components": [
            {
              "internalType": "uint256",
              "name": "token_id",
              "type": "uint256"
            },
            {
              "internalType": "string",
              "name": "ipfs_hash",
              "type": "string"
            }
          ],
          "internalType": "struct DweetNft.NFT[]",
          "name": "",
          "type": "tuple[]"
        }
      ],
      "stateMutability": "view",
      "type": "function"
    },
    {
      "inputs": [
        {
          "internalType": "address",
          "name": "owner",
          "type": "address"
        },
        {
          "internalType": "address",
          "name": "operator",
          "type": "address"
        }
      ],
      "name": "isApprovedForAll",
      "outputs": [
        {
          "internalType": "bool",
          "name": "",
          "type": "bool"
        }
      ],
      "stateMutability": "view",
      "type": "function"
    },
    {
      "inputs": [
        {
          "internalType": "string",
          "name": "ipfsString",
          "type": "string"
        }
      ],
      "name": "makeAnEpicNFT",
      "outputs": [],
      "stateMutability": "nonpayable",
      "type": "function"
    },
    {
      "inputs": [],
      "name": "name",
      "outputs": [
        {
          "internalType": "string",
          "name": "",
          "type": "string"
        }
      ],
      "stateMutability": "view",
      "type": "function"
    },
    {
      "inputs": [
        {
          "internalType": "address",
          "name": "",
          "type": "address"
        },
        {
          "internalType": "uint256",
          "name": "",
          "type": "uint256"
        }
      ],
      "name": "nfts",
      "outputs": [
        {
          "internalType": "uint256",
          "name": "token_id",
          "type": "uint256"
        },
        {
          "internalType": "string",
          "name": "ipfs_hash",
          "type": "string"
        }
      ],
      "stateMutability": "view",
      "type": "function"
    },
    {
      "inputs": [
        {
          "internalType": "uint256",
          "name": "tokenId",
          "type": "uint256"
        }
      ],
      "name": "ownerOf",
      "outputs": [
        {
          "internalType": "address",
          "name": "",
          "type": "address"
        }
      ],
      "stateMutability": "view",
      "type": "function"
    },
    {
      "inputs": [
        {
          "internalType": "address",
          "name": "from",
          "type": "address"
        },
        {
          "internalType": "address",
          "name": "to",
          "type": "address"
        },
        {
          "internalType": "uint256",
          "name": "tokenId",
          "type": "uint256"
        }
      ],
      "name": "safeTransferFrom",
      "outputs": [],
      "stateMutability": "nonpayable",
      "type": "function"
    },
    {
      "inputs": [
        {
          "internalType": "address",
          "name": "from",
          "type": "address"
        },
        {
          "internalType": "address",
          "name": "to",
          "type": "address"
        },
        {
          "internalType": "uint256",
          "name": "tokenId",
          "type": "uint256"
        },
        {
          "internalType": "bytes",
          "name": "data",
          "type": "bytes"
        }
      ],
      "name": "safeTransferFrom",
      "outputs": [],
      "stateMutability": "nonpayable",
      "type": "function"
    },
    {
      "inputs": [
        {
          "internalType": "address",
          "name": "operator",
          "type": "address"
        },
        {
          "internalType": "bool",
          "name": "approved",
          "type": "bool"
        }
      ],
      "name": "setApprovalForAll",
      "outputs": [],
      "stateMutability": "nonpayable",
      "type": "function"
    },
    {
      "inputs": [
        {
          "internalType": "bytes4",
          "name": "interfaceId",
          "type": "bytes4"
        }
      ],
      "name": "supportsInterface",
      "outputs": [
        {
          "internalType": "bool",
          "name": "",
          "type": "bool"
        }
      ],
      "stateMutability": "view",
      "type": "function"
    },
    {
      "inputs": [],
      "name": "symbol",
      "outputs": [
        {
          "internalType": "string",
          "name": "",
          "type": "string"
        }
      ],
      "stateMutability": "view",
      "type": "function"
    },
    {
      "inputs": [
        {
          "internalType": "uint256",
          "name": "_tokenId",
          "type": "uint256"
        },
        {
          "internalType": "string",
          "name": "ipfsString",
          "type": "string"
        }
      ],
      "name": "tokenURI",
      "outputs": [
        {
          "internalType": "string",
          "name": "",
          "type": "string"
        }
      ],
      "stateMutability": "view",
      "type": "function"
    },
    {
      "inputs": [
        {
          "internalType": "uint256",
          "name": "tokenId",
          "type": "uint256"
        }
      ],
      "name": "tokenURI",
      "outputs": [
        {
          "internalType": "string",
          "name": "",
          "type": "string"
        }
      ],
      "stateMutability": "view",
      "type": "function"
    },
    {
      "inputs": [
        {
          "internalType": "address",
          "name": "from",
          "type": "address"
        },
        {
          "internalType": "address",
          "name": "to",
          "type": "address"
        },
        {
          "internalType": "uint256",
          "name": "tokenId",
          "type": "uint256"
        }
      ],
      "name": "transferFrom",
      "outputs": [],
      "stateMutability": "nonpayable",
      "type": "function"
    }
  ],
  "bytecode": "0x60806040523480156200001157600080fd5b506040518060400160405280600981526020017f5371756172654e465400000000000000000000000000000000000000000000008152506040518060400160405280600681526020017f535155415245000000000000000000000000000000000000000000000000000081525081600090816200008f919062000324565b508060019081620000a1919062000324565b5050506200040b565b600081519050919050565b7f4e487b7100000000000000000000000000000000000000000000000000000000600052604160045260246000fd5b7f4e487b7100000000000000000000000000000000000000000000000000000000600052602260045260246000fd5b600060028204905060018216806200012c57607f821691505b602082108103620001425762000141620000e4565b5b50919050565b60008190508160005260206000209050919050565b60006020601f8301049050919050565b600082821b905092915050565b600060088302620001ac7fffffffffffffffffffffffffffffffffffffffffffffffffffffffffffffffff826200016d565b620001b886836200016d565b95508019841693508086168417925050509392505050565b6000819050919050565b6000819050919050565b600062000205620001ff620001f984620001d0565b620001da565b620001d0565b9050919050565b6000819050919050565b6200022183620001e4565b6200023962000230826200020c565b8484546200017a565b825550505050565b600090565b6200025062000241565b6200025d81848462000216565b505050565b5b8181101562000285576200027960008262000246565b60018101905062000263565b5050565b601f821115620002d4576200029e8162000148565b620002a9846200015d565b81016020851015620002b9578190505b620002d1620002c8856200015d565b83018262000262565b50505b505050565b600082821c905092915050565b6000620002f960001984600802620002d9565b1980831691505092915050565b6000620003148383620002e6565b9150826002028217905092915050565b6200032f82620000aa565b67ffffffffffffffff8111156200034b576200034a620000b5565b5b62000357825462000113565b6200036482828562000289565b600060209050601f8311600181146200039c576000841562000387578287015190505b62000393858262000306565b86555062000403565b601f198416620003ac8662000148565b60005b82811015620003d657848901518255600182019150602085019450602081019050620003af565b86831015620003f65784890151620003f2601f891682620002e6565b8355505b6001600288020188555050505b505050505050565b612fa2806200041b6000396000f3fe608060405234801561001057600080fd5b506004361061010b5760003560e01c806343af356b116100a257806395d89b411161007157806395d89b41146102dd578063a22cb465146102fb578063b88d4fde14610317578063c87b56dd14610333578063e985e9c5146103635761010b565b806343af356b1461022e5780636352211e1461025f57806370a082311461028f578063840a2ab8146102bf5761010b565b806323b872dd116100de57806323b872dd146101aa57806339fa8daf146101c657806341dcf454146101e257806342842e0e146102125761010b565b806301ffc9a71461011057806306fdde0314610140578063081812fc1461015e578063095ea7b31461018e575b600080fd5b61012a60048036038101906101259190611c99565b610393565b6040516101379190611ce1565b60405180910390f35b610148610475565b6040516101559190611d8c565b60405180910390f35b61017860048036038101906101739190611de4565b610507565b6040516101859190611e52565b60405180910390f35b6101a860048036038101906101a39190611e99565b61054d565b005b6101c460048036038101906101bf9190611ed9565b610664565b005b6101e060048036038101906101db9190612061565b6106c4565b005b6101fc60048036038101906101f791906120aa565b61079a565b6040516102099190611d8c565b60405180910390f35b61022c60048036038101906102279190611ed9565b6107b7565b005b61024860048036038101906102439190611e99565b6107d7565b604051610256929190612115565b60405180910390f35b61027960048036038101906102749190611de4565b6108a0565b6040516102869190611e52565b60405180910390f35b6102a960048036038101906102a49190612145565b610926565b6040516102b69190612172565b60405180910390f35b6102c76109dd565b6040516102d491906122e5565b60405180910390f35b6102e5610b15565b6040516102f29190611d8c565b60405180910390f35b61031560048036038101906103109190612333565b610ba7565b005b610331600480360381019061032c9190612414565b610bbd565b005b61034d60048036038101906103489190611de4565b610c1f565b60405161035a9190611d8c565b60405180910390f35b61037d60048036038101906103789190612497565b610c87565b60405161038a9190611ce1565b60405180910390f35b60007f80ac58cd000000000000000000000000000000000000000000000000000000007bffffffffffffffffffffffffffffffffffffffffffffffffffffffff1916827bffffffffffffffffffffffffffffffffffffffffffffffffffffffff1916148061045e57507f5b5e139f000000000000000000000000000000000000000000000000000000007bffffffffffffffffffffffffffffffffffffffffffffffffffffffff1916827bffffffffffffffffffffffffffffffffffffffffffffffffffffffff1916145b8061046e575061046d82610d1b565b5b9050919050565b60606000805461048490612506565b80601f01602080910402602001604051908101604052809291908181526020018280546104b090612506565b80156104fd5780601f106104d2576101008083540402835291602001916104fd565b820191906000526020600020905b8154815290600101906020018083116104e057829003601f168201915b5050505050905090565b600061051282610d85565b6004600083815260200190815260200160002060009054906101000a900473ffffffffffffffffffffffffffffffffffffffff169050919050565b6000610558826108a0565b90508073ffffffffffffffffffffffffffffffffffffffff168373ffffffffffffffffffffffffffffffffffffffff16036105c8576040517f08c379a00000000000000000000000000000000000000000000000000000000081526004016105bf906125a9565b60405180910390fd5b8073ffffffffffffffffffffffffffffffffffffffff166105e7610dd0565b73ffffffffffffffffffffffffffffffffffffffff161480610616575061061581610610610dd0565b610c87565b5b610655576040517f08c379a000000000000000000000000000000000000000000000000000000000815260040161064c9061263b565b60405180910390fd5b61065f8383610dd8565b505050565b61067561066f610dd0565b82610e91565b6106b4576040517f08c379a00000000000000000000000000000000000000000000000000000000081526004016106ab906126cd565b60405180910390fd5b6106bf838383610f26565b505050565b60006106d0600761121f565b90506106dc338261122d565b6106e6818361079a565b5060006040518060400160405280838152602001848152509050600660003373ffffffffffffffffffffffffffffffffffffffff1673ffffffffffffffffffffffffffffffffffffffff1681526020019081526020016000208190806001815401808255809150506001900390600052602060002090600202016000909190919091506000820151816000015560208201518160010190816107889190612899565b505050610795600761124b565b505050565b60606107a583611261565b6107ae57600080fd5b81905092915050565b6107d283838360405180602001604052806000815250610bbd565b505050565b600660205281600052604060002081815481106107f357600080fd5b90600052602060002090600202016000915091505080600001549080600101805461081d90612506565b80601f016020809104026020016040519081016040528092919081815260200182805461084990612506565b80156108965780601f1061086b57610100808354040283529160200191610896565b820191906000526020600020905b81548152906001019060200180831161087957829003601f168201915b5050505050905082565b6000806108ac836112a2565b9050600073ffffffffffffffffffffffffffffffffffffffff168173ffffffffffffffffffffffffffffffffffffffff160361091d576040517f08c379a0000000000000000000000000000000000000000000000000000000008152600401610914906129b7565b60405180910390fd5b80915050919050565b60008073ffffffffffffffffffffffffffffffffffffffff168273ffffffffffffffffffffffffffffffffffffffff1603610996576040517f08c379a000000000000000000000000000000000000000000000000000000000815260040161098d90612a49565b60405180910390fd5b600360008373ffffffffffffffffffffffffffffffffffffffff1673ffffffffffffffffffffffffffffffffffffffff168152602001908152602001600020549050919050565b6060600660003373ffffffffffffffffffffffffffffffffffffffff1673ffffffffffffffffffffffffffffffffffffffff168152602001908152602001600020805480602002602001604051908101604052809291908181526020016000905b82821015610b0c578382906000526020600020906002020160405180604001604052908160008201548152602001600182018054610a7b90612506565b80601f0160208091040260200160405190810160405280929190818152602001828054610aa790612506565b8015610af45780601f10610ac957610100808354040283529160200191610af4565b820191906000526020600020905b815481529060010190602001808311610ad757829003601f168201915b50505050508152505081526020019060010190610a3e565b50505050905090565b606060018054610b2490612506565b80601f0160208091040260200160405190810160405280929190818152602001828054610b5090612506565b8015610b9d5780601f10610b7257610100808354040283529160200191610b9d565b820191906000526020600020905b815481529060010190602001808311610b8057829003601f168201915b5050505050905090565b610bb9610bb2610dd0565b83836112df565b5050565b610bce610bc8610dd0565b83610e91565b610c0d576040517f08c379a0000000000000000000000000000000000000000000000000000000008152600401610c04906126cd565b60405180910390fd5b610c198484848461144b565b50505050565b6060610c2a82610d85565b6000610c346114a7565b90506000815111610c545760405180602001604052806000815250610c7f565b80610c5e846114be565b604051602001610c6f929190612aa5565b6040516020818303038152906040525b915050919050565b6000600560008473ffffffffffffffffffffffffffffffffffffffff1673ffffffffffffffffffffffffffffffffffffffff16815260200190815260200160002060008373ffffffffffffffffffffffffffffffffffffffff1673ffffffffffffffffffffffffffffffffffffffff16815260200190815260200160002060009054906101000a900460ff16905092915050565b60007f01ffc9a7000000000000000000000000000000000000000000000000000000007bffffffffffffffffffffffffffffffffffffffffffffffffffffffff1916827bffffffffffffffffffffffffffffffffffffffffffffffffffffffff1916149050919050565b610d8e81611261565b610dcd576040517f08c379a0000000000000000000000000000000000000000000000000000000008152600401610dc4906129b7565b60405180910390fd5b50565b600033905090565b816004600083815260200190815260200160002060006101000a81548173ffffffffffffffffffffffffffffffffffffffff021916908373ffffffffffffffffffffffffffffffffffffffff160217905550808273ffffffffffffffffffffffffffffffffffffffff16610e4b836108a0565b73ffffffffffffffffffffffffffffffffffffffff167f8c5be1e5ebec7d5bd14f71427d1e84f3dd0314c0f7b2291e5b200ac8c7c3b92560405160405180910390a45050565b600080610e9d836108a0565b90508073ffffffffffffffffffffffffffffffffffffffff168473ffffffffffffffffffffffffffffffffffffffff161480610edf5750610ede8185610c87565b5b80610f1d57508373ffffffffffffffffffffffffffffffffffffffff16610f0584610507565b73ffffffffffffffffffffffffffffffffffffffff16145b91505092915050565b8273ffffffffffffffffffffffffffffffffffffffff16610f46826108a0565b73ffffffffffffffffffffffffffffffffffffffff1614610f9c576040517f08c379a0000000000000000000000000000000000000000000000000000000008152600401610f9390612b3b565b60405180910390fd5b600073ffffffffffffffffffffffffffffffffffffffff168273ffffffffffffffffffffffffffffffffffffffff160361100b576040517f08c379a000000000000000000000000000000000000000000000000000000000815260040161100290612bcd565b60405180910390fd5b611018838383600161158c565b8273ffffffffffffffffffffffffffffffffffffffff16611038826108a0565b73ffffffffffffffffffffffffffffffffffffffff161461108e576040517f08c379a000000000000000000000000000000000000000000000000000000000815260040161108590612b3b565b60405180910390fd5b6004600082815260200190815260200160002060006101000a81549073ffffffffffffffffffffffffffffffffffffffff02191690556001600360008573ffffffffffffffffffffffffffffffffffffffff1673ffffffffffffffffffffffffffffffffffffffff168152602001908152602001600020600082825403925050819055506001600360008473ffffffffffffffffffffffffffffffffffffffff1673ffffffffffffffffffffffffffffffffffffffff16815260200190815260200160002060008282540192505081905550816002600083815260200190815260200160002060006101000a81548173ffffffffffffffffffffffffffffffffffffffff021916908373ffffffffffffffffffffffffffffffffffffffff160217905550808273ffffffffffffffffffffffffffffffffffffffff168473ffffffffffffffffffffffffffffffffffffffff167fddf252ad1be2c89b69c2b068fc378daa952ba7f163c4a11628f55a4df523b3ef60405160405180910390a461121a83838360016116b2565b505050565b600081600001549050919050565b6112478282604051806020016040528060008152506116b8565b5050565b6001816000016000828254019250508190555050565b60008073ffffffffffffffffffffffffffffffffffffffff16611283836112a2565b73ffffffffffffffffffffffffffffffffffffffff1614159050919050565b60006002600083815260200190815260200160002060009054906101000a900473ffffffffffffffffffffffffffffffffffffffff169050919050565b8173ffffffffffffffffffffffffffffffffffffffff168373ffffffffffffffffffffffffffffffffffffffff160361134d576040517f08c379a000000000000000000000000000000000000000000000000000000000815260040161134490612c39565b60405180910390fd5b80600560008573ffffffffffffffffffffffffffffffffffffffff1673ffffffffffffffffffffffffffffffffffffffff16815260200190815260200160002060008473ffffffffffffffffffffffffffffffffffffffff1673ffffffffffffffffffffffffffffffffffffffff16815260200190815260200160002060006101000a81548160ff0219169083151502179055508173ffffffffffffffffffffffffffffffffffffffff168373ffffffffffffffffffffffffffffffffffffffff167f17307eab39ab6107e8899845ad3d59bd9653f200f220920489ca2b5937696c318360405161143e9190611ce1565b60405180910390a3505050565b611456848484610f26565b61146284848484611713565b6114a1576040517f08c379a000000000000000000000000000000000000000000000000000000000815260040161149890612ccb565b60405180910390fd5b50505050565b606060405180602001604052806000815250905090565b6060600060016114cd8461189a565b01905060008167ffffffffffffffff8111156114ec576114eb611f36565b5b6040519080825280601f01601f19166020018201604052801561151e5781602001600182028036833780820191505090505b509050600082602001820190505b600115611581578080600190039150507f3031323334353637383961626364656600000000000000000000000000000000600a86061a8153600a858161157557611574612ceb565b5b0494506000850361152c575b819350505050919050565b60018111156116ac57600073ffffffffffffffffffffffffffffffffffffffff168473ffffffffffffffffffffffffffffffffffffffff16146116205780600360008673ffffffffffffffffffffffffffffffffffffffff1673ffffffffffffffffffffffffffffffffffffffff16815260200190815260200160002060008282546116189190612d49565b925050819055505b600073ffffffffffffffffffffffffffffffffffffffff168373ffffffffffffffffffffffffffffffffffffffff16146116ab5780600360008573ffffffffffffffffffffffffffffffffffffffff1673ffffffffffffffffffffffffffffffffffffffff16815260200190815260200160002060008282546116a39190612d7d565b925050819055505b5b50505050565b50505050565b6116c283836119ed565b6116cf6000848484611713565b61170e576040517f08c379a000000000000000000000000000000000000000000000000000000000815260040161170590612ccb565b60405180910390fd5b505050565b60006117348473ffffffffffffffffffffffffffffffffffffffff16611c0a565b1561188d578373ffffffffffffffffffffffffffffffffffffffff1663150b7a0261175d610dd0565b8786866040518563ffffffff1660e01b815260040161177f9493929190612e06565b6020604051808303816000875af19250505080156117bb57506040513d601f19601f820116820180604052508101906117b89190612e67565b60015b61183d573d80600081146117eb576040519150601f19603f3d011682016040523d82523d6000602084013e6117f0565b606091505b506000815103611835576040517f08c379a000000000000000000000000000000000000000000000000000000000815260040161182c90612ccb565b60405180910390fd5b805181602001fd5b63150b7a0260e01b7bffffffffffffffffffffffffffffffffffffffffffffffffffffffff1916817bffffffffffffffffffffffffffffffffffffffffffffffffffffffff191614915050611892565b600190505b949350505050565b600080600090507a184f03e93ff9f4daa797ed6e38ed64bf6a1f01000000000000000083106118f8577a184f03e93ff9f4daa797ed6e38ed64bf6a1f01000000000000000083816118ee576118ed612ceb565b5b0492506040810190505b6d04ee2d6d415b85acef81000000008310611935576d04ee2d6d415b85acef8100000000838161192b5761192a612ceb565b5b0492506020810190505b662386f26fc10000831061196457662386f26fc10000838161195a57611959612ceb565b5b0492506010810190505b6305f5e100831061198d576305f5e100838161198357611982612ceb565b5b0492506008810190505b61271083106119b25761271083816119a8576119a7612ceb565b5b0492506004810190505b606483106119d557606483816119cb576119ca612ceb565b5b0492506002810190505b600a83106119e4576001810190505b80915050919050565b600073ffffffffffffffffffffffffffffffffffffffff168273ffffffffffffffffffffffffffffffffffffffff1603611a5c576040517f08c379a0000000000000000000000000000000000000000000000000000000008152600401611a5390612ee0565b60405180910390fd5b611a6581611261565b15611aa5576040517f08c379a0000000000000000000000000000000000000000000000000000000008152600401611a9c90612f4c565b60405180910390fd5b611ab360008383600161158c565b611abc81611261565b15611afc576040517f08c379a0000000000000000000000000000000000000000000000000000000008152600401611af390612f4c565b60405180910390fd5b6001600360008473ffffffffffffffffffffffffffffffffffffffff1673ffffffffffffffffffffffffffffffffffffffff16815260200190815260200160002060008282540192505081905550816002600083815260200190815260200160002060006101000a81548173ffffffffffffffffffffffffffffffffffffffff021916908373ffffffffffffffffffffffffffffffffffffffff160217905550808273ffffffffffffffffffffffffffffffffffffffff16600073ffffffffffffffffffffffffffffffffffffffff167fddf252ad1be2c89b69c2b068fc378daa952ba7f163c4a11628f55a4df523b3ef60405160405180910390a4611c066000838360016116b2565b5050565b6000808273ffffffffffffffffffffffffffffffffffffffff163b119050919050565b6000604051905090565b600080fd5b600080fd5b60007fffffffff0000000000000000000000000000000000000000000000000000000082169050919050565b611c7681611c41565b8114611c8157600080fd5b50565b600081359050611c9381611c6d565b92915050565b600060208284031215611caf57611cae611c37565b5b6000611cbd84828501611c84565b91505092915050565b60008115159050919050565b611cdb81611cc6565b82525050565b6000602082019050611cf66000830184611cd2565b92915050565b600081519050919050565b600082825260208201905092915050565b60005b83811015611d36578082015181840152602081019050611d1b565b60008484015250505050565b6000601f19601f8301169050919050565b6000611d5e82611cfc565b611d688185611d07565b9350611d78818560208601611d18565b611d8181611d42565b840191505092915050565b60006020820190508181036000830152611da68184611d53565b905092915050565b6000819050919050565b611dc181611dae565b8114611dcc57600080fd5b50565b600081359050611dde81611db8565b92915050565b600060208284031215611dfa57611df9611c37565b5b6000611e0884828501611dcf565b91505092915050565b600073ffffffffffffffffffffffffffffffffffffffff82169050919050565b6000611e3c82611e11565b9050919050565b611e4c81611e31565b82525050565b6000602082019050611e676000830184611e43565b92915050565b611e7681611e31565b8114611e8157600080fd5b50565b600081359050611e9381611e6d565b92915050565b60008060408385031215611eb057611eaf611c37565b5b6000611ebe85828601611e84565b9250506020611ecf85828601611dcf565b9150509250929050565b600080600060608486031215611ef257611ef1611c37565b5b6000611f0086828701611e84565b9350506020611f1186828701611e84565b9250506040611f2286828701611dcf565b9150509250925092565b600080fd5b600080fd5b7f4e487b7100000000000000000000000000000000000000000000000000000000600052604160045260246000fd5b611f6e82611d42565b810181811067ffffffffffffffff82111715611f8d57611f8c611f36565b5b80604052505050565b6000611fa0611c2d565b9050611fac8282611f65565b919050565b600067ffffffffffffffff821115611fcc57611fcb611f36565b5b611fd582611d42565b9050602081019050919050565b82818337600083830152505050565b6000612004611fff84611fb1565b611f96565b9050828152602081018484840111156120205761201f611f31565b5b61202b848285611fe2565b509392505050565b600082601f83011261204857612047611f2c565b5b8135612058848260208601611ff1565b91505092915050565b60006020828403121561207757612076611c37565b5b600082013567ffffffffffffffff81111561209557612094611c3c565b5b6120a184828501612033565b91505092915050565b600080604083850312156120c1576120c0611c37565b5b60006120cf85828601611dcf565b925050602083013567ffffffffffffffff8111156120f0576120ef611c3c565b5b6120fc85828601612033565b9150509250929050565b61210f81611dae565b82525050565b600060408201905061212a6000830185612106565b818103602083015261213c8184611d53565b90509392505050565b60006020828403121561215b5761215a611c37565b5b600061216984828501611e84565b91505092915050565b60006020820190506121876000830184612106565b92915050565b600081519050919050565b600082825260208201905092915050565b6000819050602082019050919050565b6121c281611dae565b82525050565b600082825260208201905092915050565b60006121e482611cfc565b6121ee81856121c8565b93506121fe818560208601611d18565b61220781611d42565b840191505092915050565b600060408301600083015161222a60008601826121b9565b506020830151848203602086015261224282826121d9565b9150508091505092915050565b600061225b8383612212565b905092915050565b6000602082019050919050565b600061227b8261218d565b6122858185612198565b935083602082028501612297856121a9565b8060005b858110156122d357848403895281516122b4858261224f565b94506122bf83612263565b925060208a0199505060018101905061229b565b50829750879550505050505092915050565b600060208201905081810360008301526122ff8184612270565b905092915050565b61231081611cc6565b811461231b57600080fd5b50565b60008135905061232d81612307565b92915050565b6000806040838503121561234a57612349611c37565b5b600061235885828601611e84565b92505060206123698582860161231e565b9150509250929050565b600067ffffffffffffffff82111561238e5761238d611f36565b5b61239782611d42565b9050602081019050919050565b60006123b76123b284612373565b611f96565b9050828152602081018484840111156123d3576123d2611f31565b5b6123de848285611fe2565b509392505050565b600082601f8301126123fb576123fa611f2c565b5b813561240b8482602086016123a4565b91505092915050565b6000806000806080858703121561242e5761242d611c37565b5b600061243c87828801611e84565b945050602061244d87828801611e84565b935050604061245e87828801611dcf565b925050606085013567ffffffffffffffff81111561247f5761247e611c3c565b5b61248b878288016123e6565b91505092959194509250565b600080604083850312156124ae576124ad611c37565b5b60006124bc85828601611e84565b92505060206124cd85828601611e84565b9150509250929050565b7f4e487b7100000000000000000000000000000000000000000000000000000000600052602260045260246000fd5b6000600282049050600182168061251e57607f821691505b602082108103612531576125306124d7565b5b50919050565b7f4552433732313a20617070726f76616c20746f2063757272656e74206f776e6560008201527f7200000000000000000000000000000000000000000000000000000000000000602082015250565b6000612593602183611d07565b915061259e82612537565b604082019050919050565b600060208201905081810360008301526125c281612586565b9050919050565b7f4552433732313a20617070726f76652063616c6c6572206973206e6f7420746f60008201527f6b656e206f776e6572206f7220617070726f76656420666f7220616c6c000000602082015250565b6000612625603d83611d07565b9150612630826125c9565b604082019050919050565b6000602082019050818103600083015261265481612618565b9050919050565b7f4552433732313a2063616c6c6572206973206e6f7420746f6b656e206f776e6560008201527f72206f7220617070726f76656400000000000000000000000000000000000000602082015250565b60006126b7602d83611d07565b91506126c28261265b565b604082019050919050565b600060208201905081810360008301526126e6816126aa565b9050919050565b60008190508160005260206000209050919050565b60006020601f8301049050919050565b600082821b905092915050565b60006008830261274f7fffffffffffffffffffffffffffffffffffffffffffffffffffffffffffffffff82612712565b6127598683612712565b95508019841693508086168417925050509392505050565b6000819050919050565b600061279661279161278c84611dae565b612771565b611dae565b9050919050565b6000819050919050565b6127b08361277b565b6127c46127bc8261279d565b84845461271f565b825550505050565b600090565b6127d96127cc565b6127e48184846127a7565b505050565b5b81811015612808576127fd6000826127d1565b6001810190506127ea565b5050565b601f82111561284d5761281e816126ed565b61282784612702565b81016020851015612836578190505b61284a61284285612702565b8301826127e9565b50505b505050565b600082821c905092915050565b600061287060001984600802612852565b1980831691505092915050565b6000612889838361285f565b9150826002028217905092915050565b6128a282611cfc565b67ffffffffffffffff8111156128bb576128ba611f36565b5b6128c58254612506565b6128d082828561280c565b600060209050601f83116001811461290357600084156128f1578287015190505b6128fb858261287d565b865550612963565b601f198416612911866126ed565b60005b8281101561293957848901518255600182019150602085019450602081019050612914565b868310156129565784890151612952601f89168261285f565b8355505b6001600288020188555050505b505050505050565b7f4552433732313a20696e76616c696420746f6b656e2049440000000000000000600082015250565b60006129a1601883611d07565b91506129ac8261296b565b602082019050919050565b600060208201905081810360008301526129d081612994565b9050919050565b7f4552433732313a2061646472657373207a65726f206973206e6f74206120766160008201527f6c6964206f776e65720000000000000000000000000000000000000000000000602082015250565b6000612a33602983611d07565b9150612a3e826129d7565b604082019050919050565b60006020820190508181036000830152612a6281612a26565b9050919050565b600081905092915050565b6000612a7f82611cfc565b612a898185612a69565b9350612a99818560208601611d18565b80840191505092915050565b6000612ab18285612a74565b9150612abd8284612a74565b91508190509392505050565b7f4552433732313a207472616e736665722066726f6d20696e636f72726563742060008201527f6f776e6572000000000000000000000000000000000000000000000000000000602082015250565b6000612b25602583611d07565b9150612b3082612ac9565b604082019050919050565b60006020820190508181036000830152612b5481612b18565b9050919050565b7f4552433732313a207472616e7366657220746f20746865207a65726f2061646460008201527f7265737300000000000000000000000000000000000000000000000000000000602082015250565b6000612bb7602483611d07565b9150612bc282612b5b565b604082019050919050565b60006020820190508181036000830152612be681612baa565b9050919050565b7f4552433732313a20617070726f766520746f2063616c6c657200000000000000600082015250565b6000612c23601983611d07565b9150612c2e82612bed565b602082019050919050565b60006020820190508181036000830152612c5281612c16565b9050919050565b7f4552433732313a207472616e7366657220746f206e6f6e20455243373231526560008201527f63656976657220696d706c656d656e7465720000000000000000000000000000602082015250565b6000612cb5603283611d07565b9150612cc082612c59565b604082019050919050565b60006020820190508181036000830152612ce481612ca8565b9050919050565b7f4e487b7100000000000000000000000000000000000000000000000000000000600052601260045260246000fd5b7f4e487b7100000000000000000000000000000000000000000000000000000000600052601160045260246000fd5b6000612d5482611dae565b9150612d5f83611dae565b9250828203905081811115612d7757612d76612d1a565b5b92915050565b6000612d8882611dae565b9150612d9383611dae565b9250828201905080821115612dab57612daa612d1a565b5b92915050565b600081519050919050565b600082825260208201905092915050565b6000612dd882612db1565b612de28185612dbc565b9350612df2818560208601611d18565b612dfb81611d42565b840191505092915050565b6000608082019050612e1b6000830187611e43565b612e286020830186611e43565b612e356040830185612106565b8181036060830152612e478184612dcd565b905095945050505050565b600081519050612e6181611c6d565b92915050565b600060208284031215612e7d57612e7c611c37565b5b6000612e8b84828501612e52565b91505092915050565b7f4552433732313a206d696e7420746f20746865207a65726f2061646472657373600082015250565b6000612eca602083611d07565b9150612ed582612e94565b602082019050919050565b60006020820190508181036000830152612ef981612ebd565b9050919050565b7f4552433732313a20746f6b656e20616c7265616479206d696e74656400000000600082015250565b6000612f36601c83611d07565b9150612f4182612f00565b602082019050919050565b60006020820190508181036000830152612f6581612f29565b905091905056fea26469706673582212206f94fbc12361b70915b5b319c4e40902ec80275cfaf11e7ca9f46f243e80a9b364736f6c63430008110033",
  "linkReferences": {},
  "deployedLinkReferences": {}
}