{
  "_format": "hh-sol-artifact-1",
  "contractName": "Twitter",
  "sourceName": "contracts/Twitter.sol",
  "abi": [
    {
      "anonymous": false,
      "inputs": [
        {
          "indexed": false,
          "internalType": "string",
          "name": "_image_url",
          "type": "string"
        },
        {
          "indexed": false,
          "internalType": "string",
          "name": "_tweet_msg",
          "type": "string"
        },
        {
          "indexed": false,
          "internalType": "string",
          "name": "_username",
          "type": "string"
        }
      ],
      "name": "addTweetEvent",
      "type": "event"
    },
    {
      "inputs": [
        {
          "internalType": "uint256",
          "name": "_uid",
          "type": "uint256"
        },
        {
          "internalType": "string",
          "name": "_comment_msg",
          "type": "string"
        }
      ],
      "name": "addComment",
      "outputs": [],
      "stateMutability": "nonpayable",
      "type": "function"
    },
    {
      "inputs": [
        {
          "internalType": "string",
          "name": "_image_url",
          "type": "string"
        },
        {
          "internalType": "string",
          "name": "_tweet_msg",
          "type": "string"
        },
        {
          "internalType": "string",
          "name": "_username",
          "type": "string"
        }
      ],
      "name": "addTweet",
      "outputs": [],
      "stateMutability": "nonpayable",
      "type": "function"
    },
    {
      "inputs": [
        {
          "internalType": "uint256",
          "name": "_uid",
          "type": "uint256"
        }
      ],
      "name": "getComment",
      "outputs": [
        {
          "components": [
            {
              "internalType": "string",
              "name": "comment_msg",
              "type": "string"
            },
            {
              "internalType": "address",
              "name": "owner_comment",
              "type": "address"
            }
          ],
          "internalType": "struct Twitter.Comment[]",
          "name": "",
          "type": "tuple[]"
        }
      ],
      "stateMutability": "view",
      "type": "function"
    },
    {
      "inputs": [
        {
          "internalType": "uint256",
          "name": "_uid",
          "type": "uint256"
        }
      ],
      "name": "getLikesOfPost",
      "outputs": [
        {
          "internalType": "uint256",
          "name": "",
          "type": "uint256"
        }
      ],
      "stateMutability": "view",
      "type": "function"
    },
    {
      "inputs": [],
      "name": "getTweets",
      "outputs": [
        {
          "components": [
            {
              "internalType": "uint256",
              "name": "uid",
              "type": "uint256"
            },
            {
              "internalType": "string",
              "name": "image_url",
              "type": "string"
            },
            {
              "internalType": "string",
              "name": "tweet_msg",
              "type": "string"
            },
            {
              "internalType": "uint256",
              "name": "timestamp",
              "type": "uint256"
            },
            {
              "internalType": "address",
              "name": "owner",
              "type": "address"
            },
            {
              "internalType": "string",
              "name": "userName",
              "type": "string"
            }
          ],
          "internalType": "struct Twitter.Tweet[]",
          "name": "",
          "type": "tuple[]"
        }
      ],
      "stateMutability": "view",
      "type": "function"
    },
    {
      "inputs": [],
      "name": "getUserLikes",
      "outputs": [
        {
          "internalType": "uint256[]",
          "name": "",
          "type": "uint256[]"
        }
      ],
      "stateMutability": "view",
      "type": "function"
    },
    {
      "inputs": [
        {
          "internalType": "uint256",
          "name": "_uid",
          "type": "uint256"
        }
      ],
      "name": "likeTheTweet",
      "outputs": [],
      "stateMutability": "nonpayable",
      "type": "function"
    }
  ],
  "bytecode": "0x60806040526000805534801561001457600080fd5b5061150a806100246000396000f3fe608060405234801561001057600080fd5b506004361061007d5760003560e01c80639c65609b1161005b5780639c65609b146100fe578063aa7e56831461011c578063e7e38d8c14610138578063fc86741f146101545761007d565b80630800e300146100825780634b96a07d146100b25780639be69d6c146100ce575b600080fd5b61009c60048036038101906100979190610a21565b610172565b6040516100a99190610c1e565b60405180910390f35b6100cc60048036038101906100c79190610a21565b6102cc565b005b6100e860048036038101906100e39190610a21565b610360565b6040516100f59190610c4f565b60405180910390f35b61010661037d565b6040516101139190610d28565b60405180910390f35b61013660048036038101906101319190610e7f565b610412565b005b610152600480360381019061014d9190610edb565b6104e2565b005b61015c610758565b60405161016991906110db565b60405180910390f35b606060016000838152602001908152602001600020805480602002602001604051908101604052809291908181526020016000905b828210156102c157838290600052602060002090600202016040518060400160405290816000820180546101da9061112c565b80601f01602080910402602001604051908101604052809291908181526020018280546102069061112c565b80156102535780601f1061022857610100808354040283529160200191610253565b820191906000526020600020905b81548152906001019060200180831161023657829003601f168201915b505050505081526020016001820160009054906101000a900473ffffffffffffffffffffffffffffffffffffffff1673ffffffffffffffffffffffffffffffffffffffff1673ffffffffffffffffffffffffffffffffffffffff1681525050815260200190600101906101a7565b505050509050919050565b600360003373ffffffffffffffffffffffffffffffffffffffff1673ffffffffffffffffffffffffffffffffffffffff1681526020019081526020016000208190806001815401808255809150506001900390600052602060002001600090919091909150556001600260008381526020019081526020016000206000828254610356919061118c565b9250508190555050565b600060026000838152602001908152602001600020549050919050565b6060600360003373ffffffffffffffffffffffffffffffffffffffff1673ffffffffffffffffffffffffffffffffffffffff16815260200190815260200160002080548060200260200160405190810160405280929190818152602001828054801561040857602002820191906000526020600020905b8154815260200190600101908083116103f4575b5050505050905090565b600060405180604001604052808381526020013373ffffffffffffffffffffffffffffffffffffffff168152509050600160008481526020019081526020016000208190806001815401808255809150506001900390600052602060002090600202016000909190919091506000820151816000019081610493919061136c565b5060208201518160010160006101000a81548173ffffffffffffffffffffffffffffffffffffffff021916908373ffffffffffffffffffffffffffffffffffffffff1602179055505050505050565b60006040518060c0016040528060005481526020018581526020018481526020014281526020013373ffffffffffffffffffffffffffffffffffffffff1681526020018381525090506005819080600181540180825580915050600190039060005260206000209060060201600090919091909150600082015181600001556020820151816001019081610576919061136c565b50604082015181600201908161058c919061136c565b506060820151816003015560808201518160040160006101000a81548173ffffffffffffffffffffffffffffffffffffffff021916908373ffffffffffffffffffffffffffffffffffffffff16021790555060a08201518160050190816105f3919061136c565b505050600460003373ffffffffffffffffffffffffffffffffffffffff1673ffffffffffffffffffffffffffffffffffffffff16815260200190815260200160002081908060018154018082558091505060019003906000526020600020906006020160009091909190915060008201518160000155602082015181600101908161067e919061136c565b506040820151816002019081610694919061136c565b506060820151816003015560808201518160040160006101000a81548173ffffffffffffffffffffffffffffffffffffffff021916908373ffffffffffffffffffffffffffffffffffffffff16021790555060a08201518160050190816106fb919061136c565b5050507fb232d1b4d1fb0eca075f24342ca0d53b5159d78f2571e79d28d6172cfe0ad03084848460405161073193929190611488565b60405180910390a1600160008082825461074b919061118c565b9250508190555050505050565b60606005805480602002602001604051908101604052809291908181526020016000905b828210156109ce57838290600052602060002090600602016040518060c0016040529081600082015481526020016001820180546107b99061112c565b80601f01602080910402602001604051908101604052809291908181526020018280546107e59061112c565b80156108325780601f1061080757610100808354040283529160200191610832565b820191906000526020600020905b81548152906001019060200180831161081557829003601f168201915b5050505050815260200160028201805461084b9061112c565b80601f01602080910402602001604051908101604052809291908181526020018280546108779061112c565b80156108c45780601f10610899576101008083540402835291602001916108c4565b820191906000526020600020905b8154815290600101906020018083116108a757829003601f168201915b50505050508152602001600382015481526020016004820160009054906101000a900473ffffffffffffffffffffffffffffffffffffffff1673ffffffffffffffffffffffffffffffffffffffff1673ffffffffffffffffffffffffffffffffffffffff16815260200160058201805461093d9061112c565b80601f01602080910402602001604051908101604052809291908181526020018280546109699061112c565b80156109b65780601f1061098b576101008083540402835291602001916109b6565b820191906000526020600020905b81548152906001019060200180831161099957829003601f168201915b5050505050815250508152602001906001019061077c565b50505050905090565b6000604051905090565b600080fd5b600080fd5b6000819050919050565b6109fe816109eb565b8114610a0957600080fd5b50565b600081359050610a1b816109f5565b92915050565b600060208284031215610a3757610a366109e1565b5b6000610a4584828501610a0c565b91505092915050565b600081519050919050565b600082825260208201905092915050565b6000819050602082019050919050565b600081519050919050565b600082825260208201905092915050565b60005b83811015610ab4578082015181840152602081019050610a99565b60008484015250505050565b6000601f19601f8301169050919050565b6000610adc82610a7a565b610ae68185610a85565b9350610af6818560208601610a96565b610aff81610ac0565b840191505092915050565b600073ffffffffffffffffffffffffffffffffffffffff82169050919050565b6000610b3582610b0a565b9050919050565b610b4581610b2a565b82525050565b60006040830160008301518482036000860152610b688282610ad1565b9150506020830151610b7d6020860182610b3c565b508091505092915050565b6000610b948383610b4b565b905092915050565b6000602082019050919050565b6000610bb482610a4e565b610bbe8185610a59565b935083602082028501610bd085610a6a565b8060005b85811015610c0c5784840389528151610bed8582610b88565b9450610bf883610b9c565b925060208a01995050600181019050610bd4565b50829750879550505050505092915050565b60006020820190508181036000830152610c388184610ba9565b905092915050565b610c49816109eb565b82525050565b6000602082019050610c646000830184610c40565b92915050565b600081519050919050565b600082825260208201905092915050565b6000819050602082019050919050565b610c9f816109eb565b82525050565b6000610cb18383610c96565b60208301905092915050565b6000602082019050919050565b6000610cd582610c6a565b610cdf8185610c75565b9350610cea83610c86565b8060005b83811015610d1b578151610d028882610ca5565b9750610d0d83610cbd565b925050600181019050610cee565b5085935050505092915050565b60006020820190508181036000830152610d428184610cca565b905092915050565b600080fd5b600080fd5b7f4e487b7100000000000000000000000000000000000000000000000000000000600052604160045260246000fd5b610d8c82610ac0565b810181811067ffffffffffffffff82111715610dab57610daa610d54565b5b80604052505050565b6000610dbe6109d7565b9050610dca8282610d83565b919050565b600067ffffffffffffffff821115610dea57610de9610d54565b5b610df382610ac0565b9050602081019050919050565b82818337600083830152505050565b6000610e22610e1d84610dcf565b610db4565b905082815260208101848484011115610e3e57610e3d610d4f565b5b610e49848285610e00565b509392505050565b600082601f830112610e6657610e65610d4a565b5b8135610e76848260208601610e0f565b91505092915050565b60008060408385031215610e9657610e956109e1565b5b6000610ea485828601610a0c565b925050602083013567ffffffffffffffff811115610ec557610ec46109e6565b5b610ed185828601610e51565b9150509250929050565b600080600060608486031215610ef457610ef36109e1565b5b600084013567ffffffffffffffff811115610f1257610f116109e6565b5b610f1e86828701610e51565b935050602084013567ffffffffffffffff811115610f3f57610f3e6109e6565b5b610f4b86828701610e51565b925050604084013567ffffffffffffffff811115610f6c57610f6b6109e6565b5b610f7886828701610e51565b9150509250925092565b600081519050919050565b600082825260208201905092915050565b6000819050602082019050919050565b600060c083016000830151610fc66000860182610c96565b5060208301518482036020860152610fde8282610ad1565b91505060408301518482036040860152610ff88282610ad1565b915050606083015161100d6060860182610c96565b5060808301516110206080860182610b3c565b5060a083015184820360a08601526110388282610ad1565b9150508091505092915050565b60006110518383610fae565b905092915050565b6000602082019050919050565b600061107182610f82565b61107b8185610f8d565b93508360208202850161108d85610f9e565b8060005b858110156110c957848403895281516110aa8582611045565b94506110b583611059565b925060208a01995050600181019050611091565b50829750879550505050505092915050565b600060208201905081810360008301526110f58184611066565b905092915050565b7f4e487b7100000000000000000000000000000000000000000000000000000000600052602260045260246000fd5b6000600282049050600182168061114457607f821691505b602082108103611157576111566110fd565b5b50919050565b7f4e487b7100000000000000000000000000000000000000000000000000000000600052601160045260246000fd5b6000611197826109eb565b91506111a2836109eb565b92508282019050808211156111ba576111b961115d565b5b92915050565b60008190508160005260206000209050919050565b60006020601f8301049050919050565b600082821b905092915050565b6000600883026112227fffffffffffffffffffffffffffffffffffffffffffffffffffffffffffffffff826111e5565b61122c86836111e5565b95508019841693508086168417925050509392505050565b6000819050919050565b600061126961126461125f846109eb565b611244565b6109eb565b9050919050565b6000819050919050565b6112838361124e565b61129761128f82611270565b8484546111f2565b825550505050565b600090565b6112ac61129f565b6112b781848461127a565b505050565b5b818110156112db576112d06000826112a4565b6001810190506112bd565b5050565b601f821115611320576112f1816111c0565b6112fa846111d5565b81016020851015611309578190505b61131d611315856111d5565b8301826112bc565b50505b505050565b600082821c905092915050565b600061134360001984600802611325565b1980831691505092915050565b600061135c8383611332565b9150826002028217905092915050565b61137582610a7a565b67ffffffffffffffff81111561138e5761138d610d54565b5b611398825461112c565b6113a38282856112df565b600060209050601f8311600181146113d657600084156113c4578287015190505b6113ce8582611350565b865550611436565b601f1984166113e4866111c0565b60005b8281101561140c578489015182556001820191506020850194506020810190506113e7565b868310156114295784890151611425601f891682611332565b8355505b6001600288020188555050505b505050505050565b600082825260208201905092915050565b600061145a82610a7a565b611464818561143e565b9350611474818560208601610a96565b61147d81610ac0565b840191505092915050565b600060608201905081810360008301526114a2818661144f565b905081810360208301526114b6818561144f565b905081810360408301526114ca818461144f565b905094935050505056fea264697066735822122083160f4c75eef13c434caec1ada0eda80bea3d4e1496b20a8100abf566710d5764736f6c63430008110033",
  "linkReferences": {},
  "deployedLinkReferences": {}
}