{
  "_format": "hh-sol-artifact-1",
  "contractName": "Twitter",
  "sourceName": "contracts/Twitter.sol",
  "abi": [
    {
      "inputs": [],
      "stateMutability": "nonpayable",
      "type": "constructor"
    },
    {
      "anonymous": false,
      "inputs": [
        {
          "indexed": false,
          "internalType": "string",
          "name": "_image_url",
          "type": "string"
        },
        {
          "indexed": false,
          "internalType": "string",
          "name": "_tweet_msg",
          "type": "string"
        },
        {
          "indexed": false,
          "internalType": "string",
          "name": "_username",
          "type": "string"
        }
      ],
      "name": "addTweetEvent",
      "type": "event"
    },
    {
      "anonymous": false,
      "inputs": [
        {
          "indexed": false,
          "internalType": "uint256",
          "name": "_uid",
          "type": "uint256"
        }
      ],
      "name": "addTweetToVote",
      "type": "event"
    },
    {
      "anonymous": false,
      "inputs": [
        {
          "indexed": false,
          "internalType": "uint256",
          "name": "_uid",
          "type": "uint256"
        }
      ],
      "name": "removalVote",
      "type": "event"
    },
    {
      "anonymous": false,
      "inputs": [
        {
          "indexed": false,
          "internalType": "uint256",
          "name": "_uid",
          "type": "uint256"
        }
      ],
      "name": "removedTweet",
      "type": "event"
    },
    {
      "inputs": [
        {
          "internalType": "uint256",
          "name": "_uid",
          "type": "uint256"
        },
        {
          "internalType": "string",
          "name": "_comment_msg",
          "type": "string"
        }
      ],
      "name": "addComment",
      "outputs": [],
      "stateMutability": "nonpayable",
      "type": "function"
    },
    {
      "inputs": [
        {
          "internalType": "uint256",
          "name": "_uid",
          "type": "uint256"
        },
        {
          "internalType": "uint256",
          "name": "_days",
          "type": "uint256"
        }
      ],
      "name": "addPostToVote",
      "outputs": [],
      "stateMutability": "nonpayable",
      "type": "function"
    },
    {
      "inputs": [
        {
          "internalType": "string",
          "name": "_image_url",
          "type": "string"
        },
        {
          "internalType": "string",
          "name": "_tweet_msg",
          "type": "string"
        },
        {
          "internalType": "string",
          "name": "_username",
          "type": "string"
        }
      ],
      "name": "addTweet",
      "outputs": [],
      "stateMutability": "nonpayable",
      "type": "function"
    },
    {
      "inputs": [
        {
          "internalType": "uint256",
          "name": "_uid",
          "type": "uint256"
        }
      ],
      "name": "checkIfAlreadyReported",
      "outputs": [
        {
          "internalType": "bool",
          "name": "",
          "type": "bool"
        }
      ],
      "stateMutability": "nonpayable",
      "type": "function"
    },
    {
      "inputs": [],
      "name": "count",
      "outputs": [
        {
          "internalType": "uint256",
          "name": "",
          "type": "uint256"
        }
      ],
      "stateMutability": "view",
      "type": "function"
    },
    {
      "inputs": [
        {
          "internalType": "uint256",
          "name": "_uid",
          "type": "uint256"
        }
      ],
      "name": "getComment",
      "outputs": [
        {
          "components": [
            {
              "internalType": "string",
              "name": "comment_msg",
              "type": "string"
            },
            {
              "internalType": "address",
              "name": "owner_comment",
              "type": "address"
            }
          ],
          "internalType": "struct Twitter.Comment[]",
          "name": "",
          "type": "tuple[]"
        }
      ],
      "stateMutability": "view",
      "type": "function"
    },
    {
      "inputs": [
        {
          "internalType": "uint256",
          "name": "_uid",
          "type": "uint256"
        }
      ],
      "name": "getLikesOfPost",
      "outputs": [
        {
          "internalType": "uint256",
          "name": "",
          "type": "uint256"
        }
      ],
      "stateMutability": "view",
      "type": "function"
    },
    {
      "inputs": [
        {
          "internalType": "uint256",
          "name": "_uid",
          "type": "uint256"
        }
      ],
      "name": "getResultsOfTweet",
      "outputs": [],
      "stateMutability": "nonpayable",
      "type": "function"
    },
    {
      "inputs": [],
      "name": "getTweets",
      "outputs": [
        {
          "components": [
            {
              "internalType": "uint256",
              "name": "uid",
              "type": "uint256"
            },
            {
              "internalType": "string",
              "name": "image_url",
              "type": "string"
            },
            {
              "internalType": "string",
              "name": "tweet_msg",
              "type": "string"
            },
            {
              "internalType": "uint256",
              "name": "timestamp",
              "type": "uint256"
            },
            {
              "internalType": "address",
              "name": "owner",
              "type": "address"
            },
            {
              "internalType": "string",
              "name": "userName",
              "type": "string"
            }
          ],
          "internalType": "struct Twitter.Tweet[]",
          "name": "",
          "type": "tuple[]"
        }
      ],
      "stateMutability": "view",
      "type": "function"
    },
    {
      "inputs": [],
      "name": "getUserLikes",
      "outputs": [
        {
          "internalType": "uint256[]",
          "name": "",
          "type": "uint256[]"
        }
      ],
      "stateMutability": "view",
      "type": "function"
    },
    {
      "inputs": [],
      "name": "getUserTweets",
      "outputs": [
        {
          "components": [
            {
              "internalType": "uint256",
              "name": "uid",
              "type": "uint256"
            },
            {
              "internalType": "string",
              "name": "image_url",
              "type": "string"
            },
            {
              "internalType": "string",
              "name": "tweet_msg",
              "type": "string"
            },
            {
              "internalType": "uint256",
              "name": "timestamp",
              "type": "uint256"
            },
            {
              "internalType": "address",
              "name": "owner",
              "type": "address"
            },
            {
              "internalType": "string",
              "name": "userName",
              "type": "string"
            }
          ],
          "internalType": "struct Twitter.Tweet[]",
          "name": "",
          "type": "tuple[]"
        }
      ],
      "stateMutability": "view",
      "type": "function"
    },
    {
      "inputs": [],
      "name": "getVotingTweets",
      "outputs": [
        {
          "internalType": "uint256[]",
          "name": "",
          "type": "uint256[]"
        }
      ],
      "stateMutability": "view",
      "type": "function"
    },
    {
      "inputs": [
        {
          "internalType": "uint256",
          "name": "_uid",
          "type": "uint256"
        }
      ],
      "name": "likeTheTweet",
      "outputs": [],
      "stateMutability": "nonpayable",
      "type": "function"
    },
    {
      "inputs": [],
      "name": "owner",
      "outputs": [
        {
          "internalType": "address payable",
          "name": "",
          "type": "address"
        }
      ],
      "stateMutability": "view",
      "type": "function"
    },
    {
      "inputs": [
        {
          "internalType": "uint256",
          "name": "",
          "type": "uint256"
        }
      ],
      "name": "tweets",
      "outputs": [
        {
          "internalType": "uint256",
          "name": "uid",
          "type": "uint256"
        },
        {
          "internalType": "string",
          "name": "image_url",
          "type": "string"
        },
        {
          "internalType": "string",
          "name": "tweet_msg",
          "type": "string"
        },
        {
          "internalType": "uint256",
          "name": "timestamp",
          "type": "uint256"
        },
        {
          "internalType": "address",
          "name": "owner",
          "type": "address"
        },
        {
          "internalType": "string",
          "name": "userName",
          "type": "string"
        }
      ],
      "stateMutability": "view",
      "type": "function"
    },
    {
      "inputs": [
        {
          "internalType": "uint256",
          "name": "_uid",
          "type": "uint256"
        },
        {
          "internalType": "bool",
          "name": "removal",
          "type": "bool"
        }
      ],
      "name": "voteForRemoval",
      "outputs": [],
      "stateMutability": "nonpayable",
      "type": "function"
    }
  ],
  "bytecode": "0x6080604052600060015534801561001557600080fd5b50336000806101000a81548173ffffffffffffffffffffffffffffffffffffffff021916908373ffffffffffffffffffffffffffffffffffffffff160217905550612af2806100656000396000f3fe608060405234801561001057600080fd5b50600436106101005760003560e01c80639be69d6c11610097578063e7e38d8c11610066578063e7e38d8c1461029b578063e8d857b0146102b7578063e9f4fed3146102ec578063fc86741f1461030857610100565b80639be69d6c146102015780639c65609b14610231578063aa7e56831461024f578063e3303ae11461026b57610100565b8063731903ff116100d3578063731903ff1461018b578063731a4618146101a957806379de8761146101c75780638da5cb5b146101e357610100565b806306661abd146101055780630800e300146101235780634b96a07d146101535780634c595c8a1461016f575b600080fd5b61010d610326565b60405161011a919061199f565b60405180910390f35b61013d600480360381019061013891906119fa565b61032c565b60405161014a9190611bf7565b60405180910390f35b61016d600480360381019061016891906119fa565b610486565b005b610189600480360381019061018491906119fa565b61051a565b005b61019361088a565b6040516101a09190611d81565b60405180910390f35b6101b1610b46565b6040516101be9190611e52565b60405180910390f35b6101e160048036038101906101dc9190611e74565b610b9e565b005b6101eb610cf9565b6040516101f89190611ed5565b60405180910390f35b61021b600480360381019061021691906119fa565b610d1d565b604051610228919061199f565b60405180910390f35b610239610d3a565b6040516102469190611e52565b60405180910390f35b61026960048036038101906102649190612025565b610dcf565b005b610285600480360381019061028091906119fa565b610e9f565b604051610292919061209c565b60405180910390f35b6102b560048036038101906102b091906120b7565b610f85565b005b6102d160048036038101906102cc91906119fa565b6112b1565b6040516102e3969594939291906121b7565b60405180910390f35b61030660048036038101906103019190612259565b6114a5565b005b6103106116aa565b60405161031d9190611d81565b60405180910390f35b60015481565b606060026000838152602001908152602001600020805480602002602001604051908101604052809291908181526020016000905b8282101561047b5783829060005260206000209060020201604051806040016040529081600082018054610394906122c8565b80601f01602080910402602001604051908101604052809291908181526020018280546103c0906122c8565b801561040d5780601f106103e25761010080835404028352916020019161040d565b820191906000526020600020905b8154815290600101906020018083116103f057829003601f168201915b505050505081526020016001820160009054906101000a900473ffffffffffffffffffffffffffffffffffffffff1673ffffffffffffffffffffffffffffffffffffffff1673ffffffffffffffffffffffffffffffffffffffff168152505081526020019060010190610361565b505050509050919050565b600460003373ffffffffffffffffffffffffffffffffffffffff1673ffffffffffffffffffffffffffffffffffffffff16815260200190815260200160002081908060018154018082558091505060019003906000526020600020016000909190919091505560016003600083815260200190815260200160002060008282546105109190612328565b9250508190555050565b60008054906101000a900473ffffffffffffffffffffffffffffffffffffffff1673ffffffffffffffffffffffffffffffffffffffff163373ffffffffffffffffffffffffffffffffffffffff16146105a8576040517f08c379a000000000000000000000000000000000000000000000000000000000815260040161059f906123a8565b60405180910390fd5b42600d600083815260200190815260200160002054106105fd576040517f08c379a00000000000000000000000000000000000000000000000000000000081526004016105f490612414565b60405180910390fd5b6006805490508110610644576040517f08c379a000000000000000000000000000000000000000000000000000000000815260040161063b90612480565b60405180910390fd5b60006009600083815260200190815260200160002054600a6000848152602001908152602001600020546106789190612328565b90506000606482600960008681526020019081526020016000205461069d91906124cf565b6106a79190612500565b905060328111156108855760008390505b60016006805490506106ca9190612542565b8110156107f15760066001826106e09190612328565b815481106106f1576106f0612576565b5b90600052602060002090600602016006828154811061071357610712612576565b5b9060005260206000209060060201600082015481600001556001820181600101908161073f9190612767565b50600282018160020190816107549190612767565b50600382015481600301556004820160009054906101000a900473ffffffffffffffffffffffffffffffffffffffff168160040160006101000a81548173ffffffffffffffffffffffffffffffffffffffff021916908373ffffffffffffffffffffffffffffffffffffffff160217905550600582018160050190816107da9190612767565b5090505080806107e99061284f565b9150506106b8565b50600680548061080457610803612897565b5b60019003818190600052602060002090600602016000808201600090556001820160006108319190611929565b6002820160006108419190611929565b60038201600090556004820160006101000a81549073ffffffffffffffffffffffffffffffffffffffff02191690556005820160006108809190611929565b505090555b505050565b6060600560003373ffffffffffffffffffffffffffffffffffffffff1673ffffffffffffffffffffffffffffffffffffffff168152602001908152602001600020805480602002602001604051908101604052809291908181526020016000905b82821015610b3d57838290600052602060002090600602016040518060c001604052908160008201548152602001600182018054610928906122c8565b80601f0160208091040260200160405190810160405280929190818152602001828054610954906122c8565b80156109a15780601f10610976576101008083540402835291602001916109a1565b820191906000526020600020905b81548152906001019060200180831161098457829003601f168201915b505050505081526020016002820180546109ba906122c8565b80601f01602080910402602001604051908101604052809291908181526020018280546109e6906122c8565b8015610a335780601f10610a0857610100808354040283529160200191610a33565b820191906000526020600020905b815481529060010190602001808311610a1657829003601f168201915b50505050508152602001600382015481526020016004820160009054906101000a900473ffffffffffffffffffffffffffffffffffffffff1673ffffffffffffffffffffffffffffffffffffffff1673ffffffffffffffffffffffffffffffffffffffff168152602001600582018054610aac906122c8565b80601f0160208091040260200160405190810160405280929190818152602001828054610ad8906122c8565b8015610b255780601f10610afa57610100808354040283529160200191610b25565b820191906000526020600020905b815481529060010190602001808311610b0857829003601f168201915b505050505081525050815260200190600101906108eb565b50505050905090565b60606008805480602002602001604051908101604052809291908181526020018280548015610b9457602002820191906000526020600020905b815481526020019060010190808311610b80575b5050505050905090565b60008054906101000a900473ffffffffffffffffffffffffffffffffffffffff1673ffffffffffffffffffffffffffffffffffffffff163373ffffffffffffffffffffffffffffffffffffffff1614610c2c576040517f08c379a0000000000000000000000000000000000000000000000000000000008152600401610c23906123a8565b60405180910390fd5b600060096000848152602001908152602001600020819055506000600a600084815260200190815260200160002081905550600882908060018154018082558091505060019003906000526020600020016000909190919091505560006201518082610c989190612500565b42610ca39190612328565b905080600d6000858152602001908152602001600020819055507f111a5fd8a3410660823f27ef8728798d17be388e27b912bbf1ad3f0010d0a00583604051610cec919061199f565b60405180910390a1505050565b60008054906101000a900473ffffffffffffffffffffffffffffffffffffffff1681565b600060036000838152602001908152602001600020549050919050565b6060600460003373ffffffffffffffffffffffffffffffffffffffff1673ffffffffffffffffffffffffffffffffffffffff168152602001908152602001600020805480602002602001604051908101604052809291908181526020018280548015610dc557602002820191906000526020600020905b815481526020019060010190808311610db1575b5050505050905090565b600060405180604001604052808381526020013373ffffffffffffffffffffffffffffffffffffffff168152509050600260008481526020019081526020016000208190806001815401808255809150506001900390600052602060002090600202016000909190919091506000820151816000019081610e5091906128c6565b5060208201518160010160006101000a81548173ffffffffffffffffffffffffffffffffffffffff021916908373ffffffffffffffffffffffffffffffffffffffff1602179055505050505050565b6000801515600c60003373ffffffffffffffffffffffffffffffffffffffff1673ffffffffffffffffffffffffffffffffffffffff168152602001908152602001600020600084815260200190815260200160002060009054906101000a900460ff16151503610f7b576001600c60003373ffffffffffffffffffffffffffffffffffffffff1673ffffffffffffffffffffffffffffffffffffffff168152602001908152602001600020600084815260200190815260200160002060006101000a81548160ff02191690831515021790555060009050610f80565b600190505b919050565b60006040518060c0016040528060015481526020018581526020018481526020014281526020013373ffffffffffffffffffffffffffffffffffffffff1681526020018381525090508060076000600154815260200190815260200160002060008201518160000155602082015181600101908161100391906128c6565b50604082015181600201908161101991906128c6565b506060820151816003015560808201518160040160006101000a81548173ffffffffffffffffffffffffffffffffffffffff021916908373ffffffffffffffffffffffffffffffffffffffff16021790555060a082015181600501908161108091906128c6565b5090505060068190806001815401808255809150506001900390600052602060002090600602016000909190919091506000820151816000015560208201518160010190816110cf91906128c6565b5060408201518160020190816110e591906128c6565b506060820151816003015560808201518160040160006101000a81548173ffffffffffffffffffffffffffffffffffffffff021916908373ffffffffffffffffffffffffffffffffffffffff16021790555060a082015181600501908161114c91906128c6565b505050600560003373ffffffffffffffffffffffffffffffffffffffff1673ffffffffffffffffffffffffffffffffffffffff1681526020019081526020016000208190806001815401808255809150506001900390600052602060002090600602016000909190919091506000820151816000015560208201518160010190816111d791906128c6565b5060408201518160020190816111ed91906128c6565b506060820151816003015560808201518160040160006101000a81548173ffffffffffffffffffffffffffffffffffffffff021916908373ffffffffffffffffffffffffffffffffffffffff16021790555060a082015181600501908161125491906128c6565b5050507fb232d1b4d1fb0eca075f24342ca0d53b5159d78f2571e79d28d6172cfe0ad03084848460405161128a93929190612998565b60405180910390a160018060008282546112a49190612328565b9250508190555050505050565b60076020528060005260406000206000915090508060000154908060010180546112da906122c8565b80601f0160208091040260200160405190810160405280929190818152602001828054611306906122c8565b80156113535780601f1061132857610100808354040283529160200191611353565b820191906000526020600020905b81548152906001019060200180831161133657829003601f168201915b505050505090806002018054611368906122c8565b80601f0160208091040260200160405190810160405280929190818152602001828054611394906122c8565b80156113e15780601f106113b6576101008083540402835291602001916113e1565b820191906000526020600020905b8154815290600101906020018083116113c457829003601f168201915b5050505050908060030154908060040160009054906101000a900473ffffffffffffffffffffffffffffffffffffffff1690806005018054611422906122c8565b80601f016020809104026020016040519081016040528092919081815260200182805461144e906122c8565b801561149b5780601f106114705761010080835404028352916020019161149b565b820191906000526020600020905b81548152906001019060200180831161147e57829003601f168201915b5050505050905086565b60001515600b60003373ffffffffffffffffffffffffffffffffffffffff1673ffffffffffffffffffffffffffffffffffffffff168152602001908152602001600020600084815260200190815260200160002060009054906101000a900460ff16151514611549576040517f08c379a000000000000000000000000000000000000000000000000000000000815260040161154090612a30565b60405180910390fd5b42600d6000848152602001908152602001600020541161159e576040517f08c379a000000000000000000000000000000000000000000000000000000000815260040161159590612a9c565b60405180910390fd5b6001600b60003373ffffffffffffffffffffffffffffffffffffffff1673ffffffffffffffffffffffffffffffffffffffff168152602001908152602001600020600084815260200190815260200160002060006101000a81548160ff02191690831515021790555060011515811515036116435760016009600084815260200190815260200160002060008282546116379190612328565b9250508190555061166f565b6001600a600084815260200190815260200160002060008282546116679190612328565b925050819055505b7f47b0e1c72fc6aaca754df96602674a35dd19848639524c43427c2cc0bdb243e68260405161169e919061199f565b60405180910390a15050565b60606006805480602002602001604051908101604052809291908181526020016000905b8282101561192057838290600052602060002090600602016040518060c00160405290816000820154815260200160018201805461170b906122c8565b80601f0160208091040260200160405190810160405280929190818152602001828054611737906122c8565b80156117845780601f1061175957610100808354040283529160200191611784565b820191906000526020600020905b81548152906001019060200180831161176757829003601f168201915b5050505050815260200160028201805461179d906122c8565b80601f01602080910402602001604051908101604052809291908181526020018280546117c9906122c8565b80156118165780601f106117eb57610100808354040283529160200191611816565b820191906000526020600020905b8154815290600101906020018083116117f957829003601f168201915b50505050508152602001600382015481526020016004820160009054906101000a900473ffffffffffffffffffffffffffffffffffffffff1673ffffffffffffffffffffffffffffffffffffffff1673ffffffffffffffffffffffffffffffffffffffff16815260200160058201805461188f906122c8565b80601f01602080910402602001604051908101604052809291908181526020018280546118bb906122c8565b80156119085780601f106118dd57610100808354040283529160200191611908565b820191906000526020600020905b8154815290600101906020018083116118eb57829003601f168201915b505050505081525050815260200190600101906116ce565b50505050905090565b508054611935906122c8565b6000825580601f106119475750611966565b601f0160209004906000526020600020908101906119659190611969565b5b50565b5b8082111561198257600081600090555060010161196a565b5090565b6000819050919050565b61199981611986565b82525050565b60006020820190506119b46000830184611990565b92915050565b6000604051905090565b600080fd5b600080fd5b6119d781611986565b81146119e257600080fd5b50565b6000813590506119f4816119ce565b92915050565b600060208284031215611a1057611a0f6119c4565b5b6000611a1e848285016119e5565b91505092915050565b600081519050919050565b600082825260208201905092915050565b6000819050602082019050919050565b600081519050919050565b600082825260208201905092915050565b60005b83811015611a8d578082015181840152602081019050611a72565b60008484015250505050565b6000601f19601f8301169050919050565b6000611ab582611a53565b611abf8185611a5e565b9350611acf818560208601611a6f565b611ad881611a99565b840191505092915050565b600073ffffffffffffffffffffffffffffffffffffffff82169050919050565b6000611b0e82611ae3565b9050919050565b611b1e81611b03565b82525050565b60006040830160008301518482036000860152611b418282611aaa565b9150506020830151611b566020860182611b15565b508091505092915050565b6000611b6d8383611b24565b905092915050565b6000602082019050919050565b6000611b8d82611a27565b611b978185611a32565b935083602082028501611ba985611a43565b8060005b85811015611be55784840389528151611bc68582611b61565b9450611bd183611b75565b925060208a01995050600181019050611bad565b50829750879550505050505092915050565b60006020820190508181036000830152611c118184611b82565b905092915050565b600081519050919050565b600082825260208201905092915050565b6000819050602082019050919050565b611c4e81611986565b82525050565b600060c083016000830151611c6c6000860182611c45565b5060208301518482036020860152611c848282611aaa565b91505060408301518482036040860152611c9e8282611aaa565b9150506060830151611cb36060860182611c45565b506080830151611cc66080860182611b15565b5060a083015184820360a0860152611cde8282611aaa565b9150508091505092915050565b6000611cf78383611c54565b905092915050565b6000602082019050919050565b6000611d1782611c19565b611d218185611c24565b935083602082028501611d3385611c35565b8060005b85811015611d6f5784840389528151611d508582611ceb565b9450611d5b83611cff565b925060208a01995050600181019050611d37565b50829750879550505050505092915050565b60006020820190508181036000830152611d9b8184611d0c565b905092915050565b600081519050919050565b600082825260208201905092915050565b6000819050602082019050919050565b6000611ddb8383611c45565b60208301905092915050565b6000602082019050919050565b6000611dff82611da3565b611e098185611dae565b9350611e1483611dbf565b8060005b83811015611e45578151611e2c8882611dcf565b9750611e3783611de7565b925050600181019050611e18565b5085935050505092915050565b60006020820190508181036000830152611e6c8184611df4565b905092915050565b60008060408385031215611e8b57611e8a6119c4565b5b6000611e99858286016119e5565b9250506020611eaa858286016119e5565b9150509250929050565b6000611ebf82611ae3565b9050919050565b611ecf81611eb4565b82525050565b6000602082019050611eea6000830184611ec6565b92915050565b600080fd5b600080fd5b7f4e487b7100000000000000000000000000000000000000000000000000000000600052604160045260246000fd5b611f3282611a99565b810181811067ffffffffffffffff82111715611f5157611f50611efa565b5b80604052505050565b6000611f646119ba565b9050611f708282611f29565b919050565b600067ffffffffffffffff821115611f9057611f8f611efa565b5b611f9982611a99565b9050602081019050919050565b82818337600083830152505050565b6000611fc8611fc384611f75565b611f5a565b905082815260208101848484011115611fe457611fe3611ef5565b5b611fef848285611fa6565b509392505050565b600082601f83011261200c5761200b611ef0565b5b813561201c848260208601611fb5565b91505092915050565b6000806040838503121561203c5761203b6119c4565b5b600061204a858286016119e5565b925050602083013567ffffffffffffffff81111561206b5761206a6119c9565b5b61207785828601611ff7565b9150509250929050565b60008115159050919050565b61209681612081565b82525050565b60006020820190506120b1600083018461208d565b92915050565b6000806000606084860312156120d0576120cf6119c4565b5b600084013567ffffffffffffffff8111156120ee576120ed6119c9565b5b6120fa86828701611ff7565b935050602084013567ffffffffffffffff81111561211b5761211a6119c9565b5b61212786828701611ff7565b925050604084013567ffffffffffffffff811115612148576121476119c9565b5b61215486828701611ff7565b9150509250925092565b600082825260208201905092915050565b600061217a82611a53565b612184818561215e565b9350612194818560208601611a6f565b61219d81611a99565b840191505092915050565b6121b181611b03565b82525050565b600060c0820190506121cc6000830189611990565b81810360208301526121de818861216f565b905081810360408301526121f2818761216f565b90506122016060830186611990565b61220e60808301856121a8565b81810360a0830152612220818461216f565b9050979650505050505050565b61223681612081565b811461224157600080fd5b50565b6000813590506122538161222d565b92915050565b600080604083850312156122705761226f6119c4565b5b600061227e858286016119e5565b925050602061228f85828601612244565b9150509250929050565b7f4e487b7100000000000000000000000000000000000000000000000000000000600052602260045260246000fd5b600060028204905060018216806122e057607f821691505b6020821081036122f3576122f2612299565b5b50919050565b7f4e487b7100000000000000000000000000000000000000000000000000000000600052601160045260246000fd5b600061233382611986565b915061233e83611986565b9250828201905080821115612356576123556122f9565b5b92915050565b7f5573657220756e617574686f72697a6564000000000000000000000000000000600082015250565b600061239260118361215e565b915061239d8261235c565b602082019050919050565b600060208201905081810360008301526123c181612385565b9050919050565b7f566f74696e67206973207374696c6c20676f696e67206f6e0000000000000000600082015250565b60006123fe60188361215e565b9150612409826123c8565b602082019050919050565b6000602082019050818103600083015261242d816123f1565b9050919050565b7f696e646578206f7574206f6620626f756e640000000000000000000000000000600082015250565b600061246a60128361215e565b915061247582612434565b602082019050919050565b600060208201905081810360008301526124998161245d565b9050919050565b7f4e487b7100000000000000000000000000000000000000000000000000000000600052601260045260246000fd5b60006124da82611986565b91506124e583611986565b9250826124f5576124f46124a0565b5b828204905092915050565b600061250b82611986565b915061251683611986565b925082820261252481611986565b9150828204841483151761253b5761253a6122f9565b5b5092915050565b600061254d82611986565b915061255883611986565b92508282039050818111156125705761256f6122f9565b5b92915050565b7f4e487b7100000000000000000000000000000000000000000000000000000000600052603260045260246000fd5b6000815490506125b4816122c8565b9050919050565b60008190508160005260206000209050919050565b60006020601f8301049050919050565b600082821b905092915050565b60006008830261261d7fffffffffffffffffffffffffffffffffffffffffffffffffffffffffffffffff826125e0565b61262786836125e0565b95508019841693508086168417925050509392505050565b6000819050919050565b600061266461265f61265a84611986565b61263f565b611986565b9050919050565b6000819050919050565b61267e83612649565b61269261268a8261266b565b8484546125ed565b825550505050565b600090565b6126a761269a565b6126b2818484612675565b505050565b5b818110156126d6576126cb60008261269f565b6001810190506126b8565b5050565b601f82111561271b576126ec816125bb565b6126f5846125d0565b81016020851015612704578190505b612718612710856125d0565b8301826126b7565b50505b505050565b600082821c905092915050565b600061273e60001984600802612720565b1980831691505092915050565b6000612757838361272d565b9150826002028217905092915050565b81810361277557505061284d565b61277e826125a5565b67ffffffffffffffff81111561279757612796611efa565b5b6127a182546122c8565b6127ac8282856126da565b6000601f8311600181146127db57600084156127c9578287015490505b6127d3858261274b565b865550612846565b601f1984166127e9876125bb565b96506127f4866125bb565b60005b8281101561281c578489015482556001820191506001850194506020810190506127f7565b868310156128395784890154612835601f89168261272d565b8355505b6001600288020188555050505b5050505050505b565b600061285a82611986565b91507fffffffffffffffffffffffffffffffffffffffffffffffffffffffffffffffff820361288c5761288b6122f9565b5b600182019050919050565b7f4e487b7100000000000000000000000000000000000000000000000000000000600052603160045260246000fd5b6128cf82611a53565b67ffffffffffffffff8111156128e8576128e7611efa565b5b6128f282546122c8565b6128fd8282856126da565b600060209050601f831160018114612930576000841561291e578287015190505b612928858261274b565b865550612990565b601f19841661293e866125bb565b60005b8281101561296657848901518255600182019150602085019450602081019050612941565b86831015612983578489015161297f601f89168261272d565b8355505b6001600288020188555050505b505050505050565b600060608201905081810360008301526129b2818661216f565b905081810360208301526129c6818561216f565b905081810360408301526129da818461216f565b9050949350505050565b7f5573657220616c726561647920566f7465640000000000000000000000000000600082015250565b6000612a1a60128361215e565b9150612a25826129e4565b602082019050919050565b60006020820190508181036000830152612a4981612a0d565b9050919050565b7f566f74696e672074696d6520636c6f7365640000000000000000000000000000600082015250565b6000612a8660128361215e565b9150612a9182612a50565b602082019050919050565b60006020820190508181036000830152612ab581612a79565b905091905056fea2646970667358221220d83fb296e13b3fd8d04a0294ad9eea6a888ca94c50d778963015c1780b41525e64736f6c63430008110033",
  "linkReferences": {},
  "deployedLinkReferences": {}
}