{
  "_format": "hh-sol-artifact-1",
  "contractName": "Twitter",
  "sourceName": "contracts/Twitter.sol",
  "abi": [
    {
      "inputs": [],
      "stateMutability": "nonpayable",
      "type": "constructor"
    },
    {
      "anonymous": false,
      "inputs": [
        {
          "indexed": false,
          "internalType": "string",
          "name": "_image_url",
          "type": "string"
        },
        {
          "indexed": false,
          "internalType": "string",
          "name": "_tweet_msg",
          "type": "string"
        },
        {
          "indexed": false,
          "internalType": "string",
          "name": "_username",
          "type": "string"
        }
      ],
      "name": "addTweetEvent",
      "type": "event"
    },
    {
      "anonymous": false,
      "inputs": [
        {
          "indexed": false,
          "internalType": "uint256",
          "name": "_uid",
          "type": "uint256"
        }
      ],
      "name": "addTweetToVote",
      "type": "event"
    },
    {
      "anonymous": false,
      "inputs": [
        {
          "indexed": false,
          "internalType": "uint256",
          "name": "_uid",
          "type": "uint256"
        }
      ],
      "name": "removalVote",
      "type": "event"
    },
    {
      "anonymous": false,
      "inputs": [
        {
          "indexed": false,
          "internalType": "uint256",
          "name": "_uid",
          "type": "uint256"
        }
      ],
      "name": "removedTweet",
      "type": "event"
    },
    {
      "inputs": [
        {
          "internalType": "uint256",
          "name": "_uid",
          "type": "uint256"
        },
        {
          "internalType": "string",
          "name": "_comment_msg",
          "type": "string"
        }
      ],
      "name": "addComment",
      "outputs": [],
      "stateMutability": "nonpayable",
      "type": "function"
    },
    {
      "inputs": [
        {
          "internalType": "uint256",
          "name": "_uid",
          "type": "uint256"
        },
        {
          "internalType": "uint256",
          "name": "_days",
          "type": "uint256"
        }
      ],
      "name": "addPostToVote",
      "outputs": [],
      "stateMutability": "nonpayable",
      "type": "function"
    },
    {
      "inputs": [
        {
          "internalType": "string",
          "name": "_image_url",
          "type": "string"
        },
        {
          "internalType": "string",
          "name": "_tweet_msg",
          "type": "string"
        },
        {
          "internalType": "string",
          "name": "_username",
          "type": "string"
        }
      ],
      "name": "addTweet",
      "outputs": [],
      "stateMutability": "nonpayable",
      "type": "function"
    },
    {
      "inputs": [
        {
          "internalType": "uint256",
          "name": "_uid",
          "type": "uint256"
        }
      ],
      "name": "checkIfAlreadyReported",
      "outputs": [
        {
          "internalType": "bool",
          "name": "",
          "type": "bool"
        }
      ],
      "stateMutability": "nonpayable",
      "type": "function"
    },
    {
      "inputs": [],
      "name": "count",
      "outputs": [
        {
          "internalType": "uint256",
          "name": "",
          "type": "uint256"
        }
      ],
      "stateMutability": "view",
      "type": "function"
    },
    {
      "inputs": [
        {
          "internalType": "uint256",
          "name": "_uid",
          "type": "uint256"
        }
      ],
      "name": "getComment",
      "outputs": [
        {
          "components": [
            {
              "internalType": "string",
              "name": "comment_msg",
              "type": "string"
            },
            {
              "internalType": "address",
              "name": "owner_comment",
              "type": "address"
            }
          ],
          "internalType": "struct Twitter.Comment[]",
          "name": "",
          "type": "tuple[]"
        }
      ],
      "stateMutability": "view",
      "type": "function"
    },
    {
      "inputs": [
        {
          "internalType": "uint256",
          "name": "_uid",
          "type": "uint256"
        }
      ],
      "name": "getLikesOfPost",
      "outputs": [
        {
          "internalType": "uint256",
          "name": "",
          "type": "uint256"
        }
      ],
      "stateMutability": "view",
      "type": "function"
    },
    {
      "inputs": [
        {
          "internalType": "uint256",
          "name": "_uid",
          "type": "uint256"
        }
      ],
      "name": "getResultsOfTweet",
      "outputs": [],
      "stateMutability": "nonpayable",
      "type": "function"
    },
    {
      "inputs": [],
      "name": "getTweets",
      "outputs": [
        {
          "components": [
            {
              "internalType": "uint256",
              "name": "uid",
              "type": "uint256"
            },
            {
              "internalType": "string",
              "name": "image_url",
              "type": "string"
            },
            {
              "internalType": "string",
              "name": "tweet_msg",
              "type": "string"
            },
            {
              "internalType": "uint256",
              "name": "timestamp",
              "type": "uint256"
            },
            {
              "internalType": "address",
              "name": "owner",
              "type": "address"
            },
            {
              "internalType": "string",
              "name": "userName",
              "type": "string"
            }
          ],
          "internalType": "struct Twitter.Tweet[]",
          "name": "",
          "type": "tuple[]"
        }
      ],
      "stateMutability": "view",
      "type": "function"
    },
    {
      "inputs": [],
      "name": "getUserLikes",
      "outputs": [
        {
          "internalType": "uint256[]",
          "name": "",
          "type": "uint256[]"
        }
      ],
      "stateMutability": "view",
      "type": "function"
    },
    {
      "inputs": [],
      "name": "getUserTweets",
      "outputs": [
        {
          "components": [
            {
              "internalType": "uint256",
              "name": "uid",
              "type": "uint256"
            },
            {
              "internalType": "string",
              "name": "image_url",
              "type": "string"
            },
            {
              "internalType": "string",
              "name": "tweet_msg",
              "type": "string"
            },
            {
              "internalType": "uint256",
              "name": "timestamp",
              "type": "uint256"
            },
            {
              "internalType": "address",
              "name": "owner",
              "type": "address"
            },
            {
              "internalType": "string",
              "name": "userName",
              "type": "string"
            }
          ],
          "internalType": "struct Twitter.Tweet[]",
          "name": "",
          "type": "tuple[]"
        }
      ],
      "stateMutability": "view",
      "type": "function"
    },
    {
      "inputs": [],
      "name": "getVotingTweets",
      "outputs": [
        {
          "internalType": "uint256[]",
          "name": "",
          "type": "uint256[]"
        }
      ],
      "stateMutability": "view",
      "type": "function"
    },
    {
      "inputs": [
        {
          "internalType": "uint256",
          "name": "_uid",
          "type": "uint256"
        }
      ],
      "name": "likeTheTweet",
      "outputs": [],
      "stateMutability": "nonpayable",
      "type": "function"
    },
    {
      "inputs": [],
      "name": "owner",
      "outputs": [
        {
          "internalType": "address payable",
          "name": "",
          "type": "address"
        }
      ],
      "stateMutability": "view",
      "type": "function"
    },
    {
      "inputs": [
        {
          "internalType": "uint256",
          "name": "",
          "type": "uint256"
        }
      ],
      "name": "tweets",
      "outputs": [
        {
          "internalType": "uint256",
          "name": "uid",
          "type": "uint256"
        },
        {
          "internalType": "string",
          "name": "image_url",
          "type": "string"
        },
        {
          "internalType": "string",
          "name": "tweet_msg",
          "type": "string"
        },
        {
          "internalType": "uint256",
          "name": "timestamp",
          "type": "uint256"
        },
        {
          "internalType": "address",
          "name": "owner",
          "type": "address"
        },
        {
          "internalType": "string",
          "name": "userName",
          "type": "string"
        }
      ],
      "stateMutability": "view",
      "type": "function"
    },
    {
      "inputs": [
        {
          "internalType": "uint256",
          "name": "_uid",
          "type": "uint256"
        },
        {
          "internalType": "bool",
          "name": "removal",
          "type": "bool"
        }
      ],
      "name": "voteForRemoval",
      "outputs": [],
      "stateMutability": "nonpayable",
      "type": "function"
    }
  ],
  "bytecode": "0x60806040526001805534801561001457600080fd5b50336000806101000a81548173ffffffffffffffffffffffffffffffffffffffff021916908373ffffffffffffffffffffffffffffffffffffffff160217905550612b1e806100646000396000f3fe608060405234801561001057600080fd5b50600436106101005760003560e01c80639be69d6c11610097578063e7e38d8c11610066578063e7e38d8c1461029b578063e8d857b0146102b7578063e9f4fed3146102ec578063fc86741f1461030857610100565b80639be69d6c146102015780639c65609b14610231578063aa7e56831461024f578063e3303ae11461026b57610100565b8063731903ff116100d3578063731903ff1461018b578063731a4618146101a957806379de8761146101c75780638da5cb5b146101e357610100565b806306661abd146101055780630800e300146101235780634b96a07d146101535780634c595c8a1461016f575b600080fd5b61010d610326565b60405161011a91906119cb565b60405180910390f35b61013d60048036038101906101389190611a26565b61032c565b60405161014a9190611c23565b60405180910390f35b61016d60048036038101906101689190611a26565b610486565b005b61018960048036038101906101849190611a26565b61051a565b005b61019361088a565b6040516101a09190611dad565b60405180910390f35b6101b1610b46565b6040516101be9190611e7e565b60405180910390f35b6101e160048036038101906101dc9190611ea0565b610b9e565b005b6101eb610d25565b6040516101f89190611f01565b60405180910390f35b61021b60048036038101906102169190611a26565b610d49565b60405161022891906119cb565b60405180910390f35b610239610d66565b6040516102469190611e7e565b60405180910390f35b61026960048036038101906102649190612051565b610dfb565b005b61028560048036038101906102809190611a26565b610ecb565b60405161029291906120c8565b60405180910390f35b6102b560048036038101906102b091906120e3565b610fb1565b005b6102d160048036038101906102cc9190611a26565b6112dd565b6040516102e3969594939291906121e3565b60405180910390f35b61030660048036038101906103019190612285565b6114d1565b005b6103106116d6565b60405161031d9190611dad565b60405180910390f35b60015481565b606060026000838152602001908152602001600020805480602002602001604051908101604052809291908181526020016000905b8282101561047b5783829060005260206000209060020201604051806040016040529081600082018054610394906122f4565b80601f01602080910402602001604051908101604052809291908181526020018280546103c0906122f4565b801561040d5780601f106103e25761010080835404028352916020019161040d565b820191906000526020600020905b8154815290600101906020018083116103f057829003601f168201915b505050505081526020016001820160009054906101000a900473ffffffffffffffffffffffffffffffffffffffff1673ffffffffffffffffffffffffffffffffffffffff1673ffffffffffffffffffffffffffffffffffffffff168152505081526020019060010190610361565b505050509050919050565b600460003373ffffffffffffffffffffffffffffffffffffffff1673ffffffffffffffffffffffffffffffffffffffff16815260200190815260200160002081908060018154018082558091505060019003906000526020600020016000909190919091505560016003600083815260200190815260200160002060008282546105109190612354565b9250508190555050565b60008054906101000a900473ffffffffffffffffffffffffffffffffffffffff1673ffffffffffffffffffffffffffffffffffffffff163373ffffffffffffffffffffffffffffffffffffffff16146105a8576040517f08c379a000000000000000000000000000000000000000000000000000000000815260040161059f906123d4565b60405180910390fd5b42600e600083815260200190815260200160002054106105fd576040517f08c379a00000000000000000000000000000000000000000000000000000000081526004016105f490612440565b60405180910390fd5b6006805490508110610644576040517f08c379a000000000000000000000000000000000000000000000000000000000815260040161063b906124ac565b60405180910390fd5b60006009600083815260200190815260200160002054600a6000848152602001908152602001600020546106789190612354565b90506000606482600960008681526020019081526020016000205461069d91906124fb565b6106a7919061252c565b905060328111156108855760008390505b60016006805490506106ca919061256e565b8110156107f15760066001826106e09190612354565b815481106106f1576106f06125a2565b5b906000526020600020906006020160068281548110610713576107126125a2565b5b9060005260206000209060060201600082015481600001556001820181600101908161073f9190612793565b50600282018160020190816107549190612793565b50600382015481600301556004820160009054906101000a900473ffffffffffffffffffffffffffffffffffffffff168160040160006101000a81548173ffffffffffffffffffffffffffffffffffffffff021916908373ffffffffffffffffffffffffffffffffffffffff160217905550600582018160050190816107da9190612793565b5090505080806107e99061287b565b9150506106b8565b506006805480610804576108036128c3565b5b60019003818190600052602060002090600602016000808201600090556001820160006108319190611955565b6002820160006108419190611955565b60038201600090556004820160006101000a81549073ffffffffffffffffffffffffffffffffffffffff02191690556005820160006108809190611955565b505090555b505050565b6060600560003373ffffffffffffffffffffffffffffffffffffffff1673ffffffffffffffffffffffffffffffffffffffff168152602001908152602001600020805480602002602001604051908101604052809291908181526020016000905b82821015610b3d57838290600052602060002090600602016040518060c001604052908160008201548152602001600182018054610928906122f4565b80601f0160208091040260200160405190810160405280929190818152602001828054610954906122f4565b80156109a15780601f10610976576101008083540402835291602001916109a1565b820191906000526020600020905b81548152906001019060200180831161098457829003601f168201915b505050505081526020016002820180546109ba906122f4565b80601f01602080910402602001604051908101604052809291908181526020018280546109e6906122f4565b8015610a335780601f10610a0857610100808354040283529160200191610a33565b820191906000526020600020905b815481529060010190602001808311610a1657829003601f168201915b50505050508152602001600382015481526020016004820160009054906101000a900473ffffffffffffffffffffffffffffffffffffffff1673ffffffffffffffffffffffffffffffffffffffff1673ffffffffffffffffffffffffffffffffffffffff168152602001600582018054610aac906122f4565b80601f0160208091040260200160405190810160405280929190818152602001828054610ad8906122f4565b8015610b255780601f10610afa57610100808354040283529160200191610b25565b820191906000526020600020905b815481529060010190602001808311610b0857829003601f168201915b505050505081525050815260200190600101906108eb565b50505050905090565b60606008805480602002602001604051908101604052809291908181526020018280548015610b9457602002820191906000526020600020905b815481526020019060010190808311610b80575b5050505050905090565b60008054906101000a900473ffffffffffffffffffffffffffffffffffffffff1673ffffffffffffffffffffffffffffffffffffffff163373ffffffffffffffffffffffffffffffffffffffff1614610c2c576040517f08c379a0000000000000000000000000000000000000000000000000000000008152600401610c23906123d4565b60405180910390fd5b600060096000848152602001908152602001600020819055506000600a600084815260200190815260200160002081905550600882908060018154018082558091505060019003906000526020600020016000909190919091505560006201518082610c98919061252c565b42610ca39190612354565b905080600e6000858152602001908152602001600020819055506001600d600085815260200190815260200160002060006101000a81548160ff0219169083151502179055507f111a5fd8a3410660823f27ef8728798d17be388e27b912bbf1ad3f0010d0a00583604051610d1891906119cb565b60405180910390a1505050565b60008054906101000a900473ffffffffffffffffffffffffffffffffffffffff1681565b600060036000838152602001908152602001600020549050919050565b6060600460003373ffffffffffffffffffffffffffffffffffffffff1673ffffffffffffffffffffffffffffffffffffffff168152602001908152602001600020805480602002602001604051908101604052809291908181526020018280548015610df157602002820191906000526020600020905b815481526020019060010190808311610ddd575b5050505050905090565b600060405180604001604052808381526020013373ffffffffffffffffffffffffffffffffffffffff168152509050600260008481526020019081526020016000208190806001815401808255809150506001900390600052602060002090600202016000909190919091506000820151816000019081610e7c91906128f2565b5060208201518160010160006101000a81548173ffffffffffffffffffffffffffffffffffffffff021916908373ffffffffffffffffffffffffffffffffffffffff1602179055505050505050565b6000801515600c60003373ffffffffffffffffffffffffffffffffffffffff1673ffffffffffffffffffffffffffffffffffffffff168152602001908152602001600020600084815260200190815260200160002060009054906101000a900460ff16151503610fa7576001600c60003373ffffffffffffffffffffffffffffffffffffffff1673ffffffffffffffffffffffffffffffffffffffff168152602001908152602001600020600084815260200190815260200160002060006101000a81548160ff02191690831515021790555060009050610fac565b600190505b919050565b60006040518060c0016040528060015481526020018581526020018481526020014281526020013373ffffffffffffffffffffffffffffffffffffffff1681526020018381525090508060076000600154815260200190815260200160002060008201518160000155602082015181600101908161102f91906128f2565b50604082015181600201908161104591906128f2565b506060820151816003015560808201518160040160006101000a81548173ffffffffffffffffffffffffffffffffffffffff021916908373ffffffffffffffffffffffffffffffffffffffff16021790555060a08201518160050190816110ac91906128f2565b5090505060068190806001815401808255809150506001900390600052602060002090600602016000909190919091506000820151816000015560208201518160010190816110fb91906128f2565b50604082015181600201908161111191906128f2565b506060820151816003015560808201518160040160006101000a81548173ffffffffffffffffffffffffffffffffffffffff021916908373ffffffffffffffffffffffffffffffffffffffff16021790555060a082015181600501908161117891906128f2565b505050600560003373ffffffffffffffffffffffffffffffffffffffff1673ffffffffffffffffffffffffffffffffffffffff16815260200190815260200160002081908060018154018082558091505060019003906000526020600020906006020160009091909190915060008201518160000155602082015181600101908161120391906128f2565b50604082015181600201908161121991906128f2565b506060820151816003015560808201518160040160006101000a81548173ffffffffffffffffffffffffffffffffffffffff021916908373ffffffffffffffffffffffffffffffffffffffff16021790555060a082015181600501908161128091906128f2565b5050507fb232d1b4d1fb0eca075f24342ca0d53b5159d78f2571e79d28d6172cfe0ad0308484846040516112b6939291906129c4565b60405180910390a160018060008282546112d09190612354565b9250508190555050505050565b6007602052806000526040600020600091509050806000015490806001018054611306906122f4565b80601f0160208091040260200160405190810160405280929190818152602001828054611332906122f4565b801561137f5780601f106113545761010080835404028352916020019161137f565b820191906000526020600020905b81548152906001019060200180831161136257829003601f168201915b505050505090806002018054611394906122f4565b80601f01602080910402602001604051908101604052809291908181526020018280546113c0906122f4565b801561140d5780601f106113e25761010080835404028352916020019161140d565b820191906000526020600020905b8154815290600101906020018083116113f057829003601f168201915b5050505050908060030154908060040160009054906101000a900473ffffffffffffffffffffffffffffffffffffffff169080600501805461144e906122f4565b80601f016020809104026020016040519081016040528092919081815260200182805461147a906122f4565b80156114c75780601f1061149c576101008083540402835291602001916114c7565b820191906000526020600020905b8154815290600101906020018083116114aa57829003601f168201915b5050505050905086565b60001515600b60003373ffffffffffffffffffffffffffffffffffffffff1673ffffffffffffffffffffffffffffffffffffffff168152602001908152602001600020600084815260200190815260200160002060009054906101000a900460ff16151514611575576040517f08c379a000000000000000000000000000000000000000000000000000000000815260040161156c90612a5c565b60405180910390fd5b42600e600084815260200190815260200160002054116115ca576040517f08c379a00000000000000000000000000000000000000000000000000000000081526004016115c190612ac8565b60405180910390fd5b6001600b60003373ffffffffffffffffffffffffffffffffffffffff1673ffffffffffffffffffffffffffffffffffffffff168152602001908152602001600020600084815260200190815260200160002060006101000a81548160ff021916908315150217905550600115158115150361166f5760016009600084815260200190815260200160002060008282546116639190612354565b9250508190555061169b565b6001600a600084815260200190815260200160002060008282546116939190612354565b925050819055505b7f47b0e1c72fc6aaca754df96602674a35dd19848639524c43427c2cc0bdb243e6826040516116ca91906119cb565b60405180910390a15050565b60606006805480602002602001604051908101604052809291908181526020016000905b8282101561194c57838290600052602060002090600602016040518060c001604052908160008201548152602001600182018054611737906122f4565b80601f0160208091040260200160405190810160405280929190818152602001828054611763906122f4565b80156117b05780601f10611785576101008083540402835291602001916117b0565b820191906000526020600020905b81548152906001019060200180831161179357829003601f168201915b505050505081526020016002820180546117c9906122f4565b80601f01602080910402602001604051908101604052809291908181526020018280546117f5906122f4565b80156118425780601f1061181757610100808354040283529160200191611842565b820191906000526020600020905b81548152906001019060200180831161182557829003601f168201915b50505050508152602001600382015481526020016004820160009054906101000a900473ffffffffffffffffffffffffffffffffffffffff1673ffffffffffffffffffffffffffffffffffffffff1673ffffffffffffffffffffffffffffffffffffffff1681526020016005820180546118bb906122f4565b80601f01602080910402602001604051908101604052809291908181526020018280546118e7906122f4565b80156119345780601f1061190957610100808354040283529160200191611934565b820191906000526020600020905b81548152906001019060200180831161191757829003601f168201915b505050505081525050815260200190600101906116fa565b50505050905090565b508054611961906122f4565b6000825580601f106119735750611992565b601f0160209004906000526020600020908101906119919190611995565b5b50565b5b808211156119ae576000816000905550600101611996565b5090565b6000819050919050565b6119c5816119b2565b82525050565b60006020820190506119e060008301846119bc565b92915050565b6000604051905090565b600080fd5b600080fd5b611a03816119b2565b8114611a0e57600080fd5b50565b600081359050611a20816119fa565b92915050565b600060208284031215611a3c57611a3b6119f0565b5b6000611a4a84828501611a11565b91505092915050565b600081519050919050565b600082825260208201905092915050565b6000819050602082019050919050565b600081519050919050565b600082825260208201905092915050565b60005b83811015611ab9578082015181840152602081019050611a9e565b60008484015250505050565b6000601f19601f8301169050919050565b6000611ae182611a7f565b611aeb8185611a8a565b9350611afb818560208601611a9b565b611b0481611ac5565b840191505092915050565b600073ffffffffffffffffffffffffffffffffffffffff82169050919050565b6000611b3a82611b0f565b9050919050565b611b4a81611b2f565b82525050565b60006040830160008301518482036000860152611b6d8282611ad6565b9150506020830151611b826020860182611b41565b508091505092915050565b6000611b998383611b50565b905092915050565b6000602082019050919050565b6000611bb982611a53565b611bc38185611a5e565b935083602082028501611bd585611a6f565b8060005b85811015611c115784840389528151611bf28582611b8d565b9450611bfd83611ba1565b925060208a01995050600181019050611bd9565b50829750879550505050505092915050565b60006020820190508181036000830152611c3d8184611bae565b905092915050565b600081519050919050565b600082825260208201905092915050565b6000819050602082019050919050565b611c7a816119b2565b82525050565b600060c083016000830151611c986000860182611c71565b5060208301518482036020860152611cb08282611ad6565b91505060408301518482036040860152611cca8282611ad6565b9150506060830151611cdf6060860182611c71565b506080830151611cf26080860182611b41565b5060a083015184820360a0860152611d0a8282611ad6565b9150508091505092915050565b6000611d238383611c80565b905092915050565b6000602082019050919050565b6000611d4382611c45565b611d4d8185611c50565b935083602082028501611d5f85611c61565b8060005b85811015611d9b5784840389528151611d7c8582611d17565b9450611d8783611d2b565b925060208a01995050600181019050611d63565b50829750879550505050505092915050565b60006020820190508181036000830152611dc78184611d38565b905092915050565b600081519050919050565b600082825260208201905092915050565b6000819050602082019050919050565b6000611e078383611c71565b60208301905092915050565b6000602082019050919050565b6000611e2b82611dcf565b611e358185611dda565b9350611e4083611deb565b8060005b83811015611e71578151611e588882611dfb565b9750611e6383611e13565b925050600181019050611e44565b5085935050505092915050565b60006020820190508181036000830152611e988184611e20565b905092915050565b60008060408385031215611eb757611eb66119f0565b5b6000611ec585828601611a11565b9250506020611ed685828601611a11565b9150509250929050565b6000611eeb82611b0f565b9050919050565b611efb81611ee0565b82525050565b6000602082019050611f166000830184611ef2565b92915050565b600080fd5b600080fd5b7f4e487b7100000000000000000000000000000000000000000000000000000000600052604160045260246000fd5b611f5e82611ac5565b810181811067ffffffffffffffff82111715611f7d57611f7c611f26565b5b80604052505050565b6000611f906119e6565b9050611f9c8282611f55565b919050565b600067ffffffffffffffff821115611fbc57611fbb611f26565b5b611fc582611ac5565b9050602081019050919050565b82818337600083830152505050565b6000611ff4611fef84611fa1565b611f86565b9050828152602081018484840111156120105761200f611f21565b5b61201b848285611fd2565b509392505050565b600082601f83011261203857612037611f1c565b5b8135612048848260208601611fe1565b91505092915050565b60008060408385031215612068576120676119f0565b5b600061207685828601611a11565b925050602083013567ffffffffffffffff811115612097576120966119f5565b5b6120a385828601612023565b9150509250929050565b60008115159050919050565b6120c2816120ad565b82525050565b60006020820190506120dd60008301846120b9565b92915050565b6000806000606084860312156120fc576120fb6119f0565b5b600084013567ffffffffffffffff81111561211a576121196119f5565b5b61212686828701612023565b935050602084013567ffffffffffffffff811115612147576121466119f5565b5b61215386828701612023565b925050604084013567ffffffffffffffff811115612174576121736119f5565b5b61218086828701612023565b9150509250925092565b600082825260208201905092915050565b60006121a682611a7f565b6121b0818561218a565b93506121c0818560208601611a9b565b6121c981611ac5565b840191505092915050565b6121dd81611b2f565b82525050565b600060c0820190506121f860008301896119bc565b818103602083015261220a818861219b565b9050818103604083015261221e818761219b565b905061222d60608301866119bc565b61223a60808301856121d4565b81810360a083015261224c818461219b565b9050979650505050505050565b612262816120ad565b811461226d57600080fd5b50565b60008135905061227f81612259565b92915050565b6000806040838503121561229c5761229b6119f0565b5b60006122aa85828601611a11565b92505060206122bb85828601612270565b9150509250929050565b7f4e487b7100000000000000000000000000000000000000000000000000000000600052602260045260246000fd5b6000600282049050600182168061230c57607f821691505b60208210810361231f5761231e6122c5565b5b50919050565b7f4e487b7100000000000000000000000000000000000000000000000000000000600052601160045260246000fd5b600061235f826119b2565b915061236a836119b2565b925082820190508082111561238257612381612325565b5b92915050565b7f5573657220756e617574686f72697a6564000000000000000000000000000000600082015250565b60006123be60118361218a565b91506123c982612388565b602082019050919050565b600060208201905081810360008301526123ed816123b1565b9050919050565b7f566f74696e67206973207374696c6c20676f696e67206f6e0000000000000000600082015250565b600061242a60188361218a565b9150612435826123f4565b602082019050919050565b600060208201905081810360008301526124598161241d565b9050919050565b7f696e646578206f7574206f6620626f756e640000000000000000000000000000600082015250565b600061249660128361218a565b91506124a182612460565b602082019050919050565b600060208201905081810360008301526124c581612489565b9050919050565b7f4e487b7100000000000000000000000000000000000000000000000000000000600052601260045260246000fd5b6000612506826119b2565b9150612511836119b2565b925082612521576125206124cc565b5b828204905092915050565b6000612537826119b2565b9150612542836119b2565b9250828202612550816119b2565b9150828204841483151761256757612566612325565b5b5092915050565b6000612579826119b2565b9150612584836119b2565b925082820390508181111561259c5761259b612325565b5b92915050565b7f4e487b7100000000000000000000000000000000000000000000000000000000600052603260045260246000fd5b6000815490506125e0816122f4565b9050919050565b60008190508160005260206000209050919050565b60006020601f8301049050919050565b600082821b905092915050565b6000600883026126497fffffffffffffffffffffffffffffffffffffffffffffffffffffffffffffffff8261260c565b612653868361260c565b95508019841693508086168417925050509392505050565b6000819050919050565b600061269061268b612686846119b2565b61266b565b6119b2565b9050919050565b6000819050919050565b6126aa83612675565b6126be6126b682612697565b848454612619565b825550505050565b600090565b6126d36126c6565b6126de8184846126a1565b505050565b5b81811015612702576126f76000826126cb565b6001810190506126e4565b5050565b601f82111561274757612718816125e7565b612721846125fc565b81016020851015612730578190505b61274461273c856125fc565b8301826126e3565b50505b505050565b600082821c905092915050565b600061276a6000198460080261274c565b1980831691505092915050565b60006127838383612759565b9150826002028217905092915050565b8181036127a1575050612879565b6127aa826125d1565b67ffffffffffffffff8111156127c3576127c2611f26565b5b6127cd82546122f4565b6127d8828285612706565b6000601f83116001811461280757600084156127f5578287015490505b6127ff8582612777565b865550612872565b601f198416612815876125e7565b9650612820866125e7565b60005b8281101561284857848901548255600182019150600185019450602081019050612823565b868310156128655784890154612861601f891682612759565b8355505b6001600288020188555050505b5050505050505b565b6000612886826119b2565b91507fffffffffffffffffffffffffffffffffffffffffffffffffffffffffffffffff82036128b8576128b7612325565b5b600182019050919050565b7f4e487b7100000000000000000000000000000000000000000000000000000000600052603160045260246000fd5b6128fb82611a7f565b67ffffffffffffffff81111561291457612913611f26565b5b61291e82546122f4565b612929828285612706565b600060209050601f83116001811461295c576000841561294a578287015190505b6129548582612777565b8655506129bc565b601f19841661296a866125e7565b60005b828110156129925784890151825560018201915060208501945060208101905061296d565b868310156129af57848901516129ab601f891682612759565b8355505b6001600288020188555050505b505050505050565b600060608201905081810360008301526129de818661219b565b905081810360208301526129f2818561219b565b90508181036040830152612a06818461219b565b9050949350505050565b7f5573657220616c726561647920566f7465640000000000000000000000000000600082015250565b6000612a4660128361218a565b9150612a5182612a10565b602082019050919050565b60006020820190508181036000830152612a7581612a39565b9050919050565b7f566f74696e672074696d6520636c6f7365640000000000000000000000000000600082015250565b6000612ab260128361218a565b9150612abd82612a7c565b602082019050919050565b60006020820190508181036000830152612ae181612aa5565b905091905056fea2646970667358221220dabfadef7b7c3d7f4636e70788d412f48c931e487cddd739514f31dfedbe561b64736f6c63430008110033",
  "linkReferences": {},
  "deployedLinkReferences": {}
}